{
  "_format": "hh-sol-artifact-1",
  "contractName": "PresaleNFT",
  "sourceName": "contracts/SaleNFT.sol",
  "abi": [
    {
      "inputs": [
        {
          "internalType": "address",
          "name": "_token",
          "type": "address"
        },
        {
          "internalType": "address",
          "name": "_owner",
          "type": "address"
        }
      ],
      "stateMutability": "nonpayable",
      "type": "constructor"
    },
    {
      "inputs": [
        {
          "internalType": "address",
          "name": "owner",
          "type": "address"
        }
      ],
      "name": "OwnableInvalidOwner",
      "type": "error"
    },
    {
      "inputs": [
        {
          "internalType": "address",
          "name": "account",
          "type": "address"
        }
      ],
      "name": "OwnableUnauthorizedAccount",
      "type": "error"
    },
    {
      "anonymous": false,
      "inputs": [
        {
          "indexed": true,
          "internalType": "address",
          "name": "user",
          "type": "address"
        },
        {
          "indexed": false,
          "internalType": "uint256",
          "name": "tokenId",
          "type": "uint256"
        }
      ],
      "name": "BuyToken",
      "type": "event"
    },
    {
      "anonymous": false,
      "inputs": [
        {
          "indexed": true,
          "internalType": "address",
          "name": "previousOwner",
          "type": "address"
        },
        {
          "indexed": true,
          "internalType": "address",
          "name": "newOwner",
          "type": "address"
        }
      ],
      "name": "OwnershipTransferred",
      "type": "event"
    },
    {
      "inputs": [],
      "name": "buy",
      "outputs": [],
      "stateMutability": "payable",
      "type": "function"
    },
    {
      "inputs": [],
      "name": "owner",
      "outputs": [
        {
          "internalType": "address",
          "name": "",
          "type": "address"
        }
      ],
      "stateMutability": "view",
      "type": "function"
    },
    {
      "inputs": [],
      "name": "price",
      "outputs": [
        {
          "internalType": "uint256",
          "name": "",
          "type": "uint256"
        }
      ],
      "stateMutability": "view",
      "type": "function"
    },
    {
      "inputs": [],
      "name": "renounceOwnership",
      "outputs": [],
      "stateMutability": "nonpayable",
      "type": "function"
    },
    {
      "inputs": [
        {
          "internalType": "uint256",
          "name": "_price",
          "type": "uint256"
        }
      ],
      "name": "setPrice",
      "outputs": [],
      "stateMutability": "nonpayable",
      "type": "function"
    },
    {
      "inputs": [],
      "name": "token",
      "outputs": [
        {
          "internalType": "contract CANNANFT",
          "name": "",
          "type": "address"
        }
      ],
      "stateMutability": "view",
      "type": "function"
    },
    {
      "inputs": [
        {
          "internalType": "address",
          "name": "newOwner",
          "type": "address"
        }
      ],
      "name": "transferOwnership",
      "outputs": [],
      "stateMutability": "nonpayable",
      "type": "function"
    },
    {
      "inputs": [],
      "name": "withdrawFund",
      "outputs": [],
      "stateMutability": "nonpayable",
      "type": "function"
    }
  ],
  "bytecode": "0x6080346100d557601f6104ce38819003918201601f19168301916001600160401b038311848410176100da5780849260409485528339810103126100d5576020610048826100f0565b916001600160a01b0391829161005e91016100f0565b169081156100bc576000549260018060a01b03199280848616176000558260405195167f8be0079c531659141344cd1fd0a4f28419497f9722a3daafe3b4186f6b6457e0600080a3169060015416176001556103c990816101058239f35b604051631e4fbdf760e01b815260006004820152602490fd5b600080fd5b634e487b7160e01b600052604160045260246000fd5b51906001600160a01b03821682036100d55756fe6040608081526004908136101561001557600080fd5b600091823560e01c908163715018a61461030a5781638da5cb5b146102e257816391b7f5ed146102c0578163a035b1fe146102a1578163a6f2ae3a1461017f578163e07fa3c114610139578163f2fde38b146100a6575063fc0c546a1461007b57600080fd5b346100a257816003193601126100a25760015490516001600160a01b039091168152602090f35b5080fd5b91905034610135576020366003190112610135576001600160a01b03823581811693919290849003610131576100da610367565b831561011b57505082546001600160a01b0319811683178455167f8be0079c531659141344cd1fd0a4f28419497f9722a3daafe3b4186f6b6457e08380a380f35b51631e4fbdf760e01b8152908101849052602490fd5b8480fd5b8280fd5b5050346100a257816003193601126100a257610153610367565b8180808047818115610176575b3390f11561016c575080f35b51903d90823e3d90fd5b506108fc610160565b9190508260031936011261013557600254340361026a5760015481516354ba0f2760e01b81523384820152906020908290602490829088906001600160a01b03165af19283156102605784936101ff575b5050519081527fdd06b66c3ba8126086cd863137d6f3b86ce5bcf4309cac390cc265e39194d0b260203392a280f35b909192506020903d8211610258575b601f8201601f191683019067ffffffffffffffff8211848310176102455750602091839185528101031261013557519038806101d0565b634e487b7160e01b865260419052602485fd5b3d915061020e565b82513d86823e3d90fd5b906020606492519162461bcd60e51b835282015260116024820152705072696365206e6f742065786163746c7960781b6044820152fd5b5050346100a257816003193601126100a2576020906002549051908152f35b8390346100a25760203660031901126100a2576102db610367565b3560025580f35b5050346100a257816003193601126100a257905490516001600160a01b039091168152602090f35b8334610364578060031936011261036457610323610367565b80546001600160a01b03198116825581906001600160a01b03167f8be0079c531659141344cd1fd0a4f28419497f9722a3daafe3b4186f6b6457e08280a380f35b80fd5b6000546001600160a01b0316330361037b57565b60405163118cdaa760e01b8152336004820152602490fdfea26469706673582212206af8f44b3c6f4ca9e30da9e0203cbaec72dcbd73b67a0c2cfb0de651d8c7407e64736f6c63430008140033",
  "linkReferences": {},
  "deployedLinkReferences": {}
}