{"contracts/NFT.sol":{"CANNANFT":{"abi":[{"inputs":[{"internalType":"string","name":"baseURI","type":"string"},{"internalType":"address","name":"_owner","type":"address"}],"stateMutability":"nonpayable","type":"constructor"},{"inputs":[{"internalType":"address","name":"sender","type":"address"},{"internalType":"uint256","name":"tokenId","type":"uint256"},{"internalType":"address","name":"owner","type":"address"}],"name":"ERC721IncorrectOwner","type":"error"},{"inputs":[{"internalType":"address","name":"operator","type":"address"},{"internalType":"uint256","name":"tokenId","type":"uint256"}],"name":"ERC721InsufficientApproval","type":"error"},{"inputs":[{"internalType":"address","name":"approver","type":"address"}],"name":"ERC721InvalidApprover","type":"error"},{"inputs":[{"internalType":"address","name":"operator","type":"address"}],"name":"ERC721InvalidOperator","type":"error"},{"inputs":[{"internalType":"address","name":"owner","type":"address"}],"name":"ERC721InvalidOwner","type":"error"},{"inputs":[{"internalType":"address","name":"receiver","type":"address"}],"name":"ERC721InvalidReceiver","type":"error"},{"inputs":[{"internalType":"address","name":"sender","type":"address"}],"name":"ERC721InvalidSender","type":"error"},{"inputs":[{"internalType":"uint256","name":"tokenId","type":"uint256"}],"name":"ERC721NonexistentToken","type":"error"},{"inputs":[{"internalType":"address","name":"owner","type":"address"}],"name":"OwnableInvalidOwner","type":"error"},{"inputs":[{"internalType":"address","name":"account","type":"address"}],"name":"OwnableUnauthorizedAccount","type":"error"},{"anonymous":false,"inputs":[{"indexed":true,"internalType":"address","name":"owner","type":"address"},{"indexed":true,"internalType":"address","name":"approved","type":"address"},{"indexed":true,"internalType":"uint256","name":"tokenId","type":"uint256"}],"name":"Approval","type":"event"},{"anonymous":false,"inputs":[{"indexed":true,"internalType":"address","name":"owner","type":"address"},{"indexed":true,"internalType":"address","name":"operator","type":"address"},{"indexed":false,"internalType":"bool","name":"approved","type":"bool"}],"name":"ApprovalForAll","type":"event"},{"anonymous":false,"inputs":[{"indexed":false,"internalType":"uint256","name":"_fromTokenId","type":"uint256"},{"indexed":false,"internalType":"uint256","name":"_toTokenId","type":"uint256"}],"name":"BatchMetadataUpdate","type":"event"},{"anonymous":false,"inputs":[{"indexed":false,"internalType":"uint256","name":"_tokenId","type":"uint256"}],"name":"MetadataUpdate","type":"event"},{"anonymous":false,"inputs":[{"indexed":true,"internalType":"address","name":"previousOwner","type":"address"},{"indexed":true,"internalType":"address","name":"newOwner","type":"address"}],"name":"OwnershipTransferred","type":"event"},{"anonymous":false,"inputs":[{"indexed":true,"internalType":"address","name":"from","type":"address"},{"indexed":true,"internalType":"address","name":"to","type":"address"},{"indexed":true,"internalType":"uint256","name":"tokenId","type":"uint256"}],"name":"Transfer","type":"event"},{"inputs":[],"name":"MAX_NFT","outputs":[{"internalType":"uint256","name":"","type":"uint256"}],"stateMutability":"view","type":"function"},{"inputs":[{"internalType":"address","name":"to","type":"address"},{"internalType":"uint256","name":"tokenId","type":"uint256"}],"name":"approve","outputs":[],"stateMutability":"nonpayable","type":"function"},{"inputs":[{"internalType":"address","name":"owner","type":"address"}],"name":"balanceOf","outputs":[{"internalType":"uint256","name":"","type":"uint256"}],"stateMutability":"view","type":"function"},{"inputs":[{"internalType":"uint256","name":"tokenId","type":"uint256"}],"name":"getApproved","outputs":[{"internalType":"address","name":"","type":"address"}],"stateMutability":"view","type":"function"},{"inputs":[],"name":"getTotalIds","outputs":[{"internalType":"uint256","name":"","type":"uint256"}],"stateMutability":"view","type":"function"},{"inputs":[{"internalType":"address","name":"owner","type":"address"},{"internalType":"address","name":"operator","type":"address"}],"name":"isApprovedForAll","outputs":[{"internalType":"bool","name":"","type":"bool"}],"stateMutability":"view","type":"function"},{"inputs":[{"internalType":"address","name":"_toAddress","type":"address"}],"name":"mintNFT","outputs":[{"internalType":"uint256","name":"","type":"uint256"}],"stateMutability":"nonpayable","type":"function"},{"inputs":[],"name":"name","outputs":[{"internalType":"string","name":"","type":"string"}],"stateMutability":"view","type":"function"},{"inputs":[],"name":"owner","outputs":[{"internalType":"address","name":"","type":"address"}],"stateMutability":"view","type":"function"},{"inputs":[{"internalType":"uint256","name":"tokenId","type":"uint256"}],"name":"ownerOf","outputs":[{"internalType":"address","name":"","type":"address"}],"stateMutability":"view","type":"function"},{"inputs":[],"name":"renounceOwnership","outputs":[],"stateMutability":"nonpayable","type":"function"},{"inputs":[{"internalType":"address","name":"from","type":"address"},{"internalType":"address","name":"to","type":"address"},{"internalType":"uint256","name":"tokenId","type":"uint256"}],"name":"safeTransferFrom","outputs":[],"stateMutability":"nonpayable","type":"function"},{"inputs":[{"internalType":"address","name":"from","type":"address"},{"internalType":"address","name":"to","type":"address"},{"internalType":"uint256","name":"tokenId","type":"uint256"},{"internalType":"bytes","name":"data","type":"bytes"}],"name":"safeTransferFrom","outputs":[],"stateMutability":"nonpayable","type":"function"},{"inputs":[{"internalType":"address","name":"operator","type":"address"},{"internalType":"bool","name":"approved","type":"bool"}],"name":"setApprovalForAll","outputs":[],"stateMutability":"nonpayable","type":"function"},{"inputs":[{"internalType":"address","name":"_minter","type":"address"}],"name":"setMintRole","outputs":[],"stateMutability":"nonpayable","type":"function"},{"inputs":[{"internalType":"bytes4","name":"interfaceId","type":"bytes4"}],"name":"supportsInterface","outputs":[{"internalType":"bool","name":"","type":"bool"}],"stateMutability":"view","type":"function"},{"inputs":[],"name":"symbol","outputs":[{"internalType":"string","name":"","type":"string"}],"stateMutability":"view","type":"function"},{"inputs":[{"internalType":"uint256","name":"tokenId","type":"uint256"}],"name":"tokenURI","outputs":[{"internalType":"string","name":"","type":"string"}],"stateMutability":"view","type":"function"},{"inputs":[{"internalType":"address","name":"from","type":"address"},{"internalType":"address","name":"to","type":"address"},{"internalType":"uint256","name":"tokenId","type":"uint256"}],"name":"transferFrom","outputs":[],"stateMutability":"nonpayable","type":"function"},{"inputs":[{"internalType":"address","name":"newOwner","type":"address"}],"name":"transferOwnership","outputs":[],"stateMutability":"nonpayable","type":"function"}],"evm":{"bytecode":{"linkReferences":{},"object":"60806040523462000544576200173e803803806200001d816200057e565b928339810190604081830312620005445780516001600160401b0391908281116200054457810192601f9080828601121562000544578451928484116200037257602093601f199662000076868987850116016200057e565b9382855286838301011162000544579085929160005b82811062000549575050600090840183015201516001600160a01b039390848116908190036200054457620000c06200055e565b94601786527f43616e6e61436f6e6e656374204d656d6265727368697000000000000000000083870152620000f46200055e565b600881526710d053939053919560c21b84820152865188811162000372576000546001988982811c9216801562000539575b8783101462000351578189849311620004e3575b5086908983116001146200047e5760009262000472575b5050600019600383901b1c191690881b176000555b80519088821162000372578754908882811c9216801562000467575b868310146200035157818884931162000411575b508590888311600114620003ad57600092620003a1575b5050600019600383901b1c191690871b1786555b81156200038857600780546001600160a01b0319811684179091558291167f8be0079c531659141344cd1fd0a4f28419497f9722a3daafe3b4186f6b6457e0600080a3611388600955600052600b815260406000208460ff1982541617905581519485116200037257600a548481811c9116801562000367575b82821014620003515783811162000305575b50809285116001146200029a5750839450908392916000946200028e575b50501b916000199060031b1c191617600a555b6040516111999081620005a58239f35b0151925038806200026b565b929484908116600a60005284600020946000905b88838310620002ea5750505010620002d0575b505050811b01600a556200027e565b015160001960f88460031b161c19169055388080620002c1565b858701518855909601959485019487935090810190620002ae565b600a600052816000208480880160051c82019284891062000347575b0160051c019085905b8281106200033a5750506200024d565b600081550185906200032a565b9250819262000321565b634e487b7160e01b600052602260045260246000fd5b90607f16906200023b565b634e487b7160e01b600052604160045260246000fd5b604051631e4fbdf760e01b815260006004820152602490fd5b015190503880620001ad565b908b8a94169184600052876000209260005b89828210620003fa5750508411620003e0575b505050811b018655620001c1565b015160001960f88460031b161c19169055388080620003d2565b8385015186558d97909501949384019301620003bf565b90915088600052856000208880850160051c8201928886106200045d575b918b91869594930160051c01915b8281106200044d57505062000196565b600081558594508b91016200043d565b925081926200042f565b91607f169162000182565b01519050388062000151565b908c8b94169160008052886000209260005b8a828210620004cc5750508411620004b2575b505050811b0160005562000166565b015160001960f88460031b161c19169055388080620004a3565b8385015186558e9790950194938401930162000490565b90915060008052866000208980850160051c8201928986106200052f575b918c91869594930160051c01915b8281106200051f5750506200013a565b600081558594508c91016200050f565b9250819262000501565b91607f169162000126565b600080fd5b8181018501518682018601528794016200008c565b60408051919082016001600160401b038111838210176200037257604052565b6040519190601f01601f191682016001600160401b03811183821017620003725760405256fe6080604081815260048036101561001557600080fd5b600092833560e01c90816301ffc9a714610c345750806306fdde0314610b8c578063081812fc14610b51578063095ea7b314610a7557806323b872dd14610a5d57806342842e0e14610a34578063530dd079146109e757806354ba0f271461063c5780636352211e1461060b5780636fdaddf1146105ec57806370a0823114610597578063715018a6146105375780638da5cb5b1461050e57806395d89b411461042b578063a22cb46514610380578063b88d4fde146102f7578063c87b56dd14610202578063e2b02047146101e3578063e985e9c5146101915763f2fde38b146100ff57600080fd5b3461018d57602036600319011261018d57610118610cfa565b90610121610dd0565b6001600160a01b03918216928315610177575050600754826bffffffffffffffffffffffff60a01b821617600755167f8be0079c531659141344cd1fd0a4f28419497f9722a3daafe3b4186f6b6457e08380a380f35b51631e4fbdf760e01b8152908101849052602490fd5b8280fd5b5050346101df57806003193601126101df5760ff816020936101b1610cfa565b6101b9610d15565b6001600160a01b0391821683526005875283832091168252855220549151911615158152f35b5080fd5b5050346101df57816003193601126101df576020906008549051908152f35b50903461018d57602091826003193601126102f3573561022181611128565b5083526006825280832092815180948290805461023d81610dfc565b918285526001918883821691826000146102cc57505060011461028e575b50505061028a93929161026f910386610d92565b815161027a81610d60565b5251928284938452830190610cba565b0390f35b8552868520879350859291905b8284106102b4575050508201018161026f61028a61025b565b8054848b01860152899550889490930192810161029b565b60ff19168782015293151560051b8601909301935084925061026f915061028a905061025b565b8380fd5b50903461018d57608036600319011261018d57610312610cfa565b61031a610d15565b846064359467ffffffffffffffff86116101df57366023870112156101df578501359461035261034987610db4565b95519586610d92565b85855236602487830101116101df578561037d96602460209301838801378501015260443591610fd5565b80f35b50903461018d578060031936011261018d5761039a610cfa565b9060243580151592838203610427576001600160a01b031693841561041057506103e39033865260056020528286208587526020528286209060ff801983541691151516179055565b519081527f17307eab39ab6107e8899845ad3d59bd9653f200f220920489ca2b5937696c3160203392a380f35b8251630b61174360e31b8152908101859052602490fd5b8580fd5b5050346101df57816003193601126101df5780519082600180549161044f83610dfc565b808652928281169081156104e6575060011461048a575b5050506104788261028a940383610d92565b51918291602083526020830190610cba565b94508085527fb10e2d527612073b26eecdfd717e6a320cf44b4afac2b0732d9fcbe2b7fa0cf65b8286106104ce5750505061047882602061028a9582010194610466565b805460208787018101919091529095019481016104b1565b61028a97508693506020925061047894915060ff191682840152151560051b82010194610466565b5050346101df57816003193601126101df5760075490516001600160a01b039091168152602090f35b8334610594578060031936011261059457610550610dd0565b600780546001600160a01b0319811690915581906001600160a01b03167f8be0079c531659141344cd1fd0a4f28419497f9722a3daafe3b4186f6b6457e08280a380f35b80fd5b509134610594576020366003190112610594576001600160a01b036105ba610cfa565b169283156105d75750806020938392526003845220549051908152f35b91516322718ad960e21b815291820152602490fd5b5050346101df57816003193601126101df576020906009549051908152f35b509134610594576020366003190112610594575061062b60209235611128565b90516001600160a01b039091168152f35b50903461018d576020928360031936011261059457610659610cfa565b92338252600b855260ff8383205416156109ad5760085490600954821015610977576000198281146109645760019283016008819055956001600160a01b0390811690811561094d578786526002895286862054168015159188918361091c575b81885260038b5288882080548801905582885260028b5288882080546001600160a01b031916831790557fddf252ad1be2c89b69c2b068fc378daa952ba7f163c4a11628f55a4df523b3ef8880a461090557845193878582600a5461071e81610dfc565b808452908881169081156108e7575060011461088d575b5061074292500386610d92565b868152600688528581209480519367ffffffffffffffff851161087a575061076a8654610dfc565b601f8111610834575b508891601f85116001146107d457918495918593956107c9575b50501b9260031b1c19161790555b7ff8e1a15aba9398e019f0b49df1a4fde98ee17ae345cb5f6b5e2c27f5033e8ce7838251848152a151908152f35b01519350388061078d565b92919084601f1981168886528b8620955b8c8983831061081d5750505010610805575b50505050811b01905561079b565b01519060f88460031b161c19169055388080806107f7565b8686015189559097019694850194889350016107e5565b868352898320601f860160051c8101918b8710610870575b601f0160051c019086905b828110610865575050610773565b848155018690610857565b909150819061084c565b634e487b7160e01b835260419052602482fd5b600a8552849150877fc65a7bb8d6351c1cf70c95a316cc6a92839c986682d98bc35f958f4883f9d2a85b8284106108d05750505091610742928201018a92610735565b80548b85018701528a9450928501928991016108b7565b60ff191684860152508b9390151560051b8301019050610742610735565b84516339e3563760e11b8152808301859052602490fd5b600083815260046020526040902080546001600160a01b031916905580885260038b528888208581540190556106ba565b8651633250574960e11b8152808501879052602490fd5b634e487b7160e01b845260118252602484fd5b835162461bcd60e51b8152908101869052601060248201526f4d6178696d756d20537570706c69657360801b6044820152606490fd5b825162461bcd60e51b8152908101859052601460248201527313db9b1e48135a5b9d195c8818d85b881b5a5b9d60621b6044820152606490fd5b5050346101df5760203660031901126101df5761037d90610a06610cfa565b610a0e610dd0565b6001600160a01b03168352600b6020528220805460ff818116151660ff19909116179055565b5050346101df5761037d90610a4836610d2b565b91925192610a5584610d60565b858452610fd5565b83346105945761037d610a6f36610d2b565b91610e36565b50903461018d578060031936011261018d57610a8f610cfa565b91602435610a9c81611128565b33151580610b3e575b80610b15575b610aff576001600160a01b039485169482918691167f8c5be1e5ebec7d5bd14f71427d1e84f3dd0314c0f7b2291e5b200ac8c7c3b9258880a48452602052822080546001600160a01b031916909117905580f35b835163a9fbf51f60e01b81523381850152602490fd5b506001600160a01b03811686526005602090815284872033885290528386205460ff1615610aab565b506001600160a01b038116331415610aa5565b503461018d57602036600319011261018d57918260209335610b7281611128565b50825283528190205490516001600160a01b039091168152f35b5050346101df57816003193601126101df57805190828054610bad81610dfc565b808552916001918083169081156104e65750600114610bd8575050506104788261028a940383610d92565b80809650527f290decd9548b62a8d60345a988386fc84ba6bc95484008f6362f93160ef3e5635b828610610c1c5750505061047882602061028a9582010194610466565b80546020878701810191909152909501948101610bff565b9250503461018d57602036600319011261018d573563ffffffff60e01b811680910361018d5760209250632483248360e11b8114908115610c77575b5015158152f35b6380ac58cd60e01b811491508115610ca9575b8115610c98575b5038610c70565b6301ffc9a760e01b14905038610c91565b635b5e139f60e01b81149150610c8a565b919082519283825260005b848110610ce6575050826000602080949584010152601f8019910116010190565b602081830181015184830182015201610cc5565b600435906001600160a01b0382168203610d1057565b600080fd5b602435906001600160a01b0382168203610d1057565b6060906003190112610d10576001600160a01b03906004358281168103610d1057916024359081168103610d10579060443590565b6020810190811067ffffffffffffffff821117610d7c57604052565b634e487b7160e01b600052604160045260246000fd5b90601f8019910116810190811067ffffffffffffffff821117610d7c57604052565b67ffffffffffffffff8111610d7c57601f01601f191660200190565b6007546001600160a01b03163303610de457565b60405163118cdaa760e01b8152336004820152602490fd5b90600182811c92168015610e2c575b6020831014610e1657565b634e487b7160e01b600052602260045260246000fd5b91607f1691610e0b565b6001600160a01b039182169290918315610fbc57600092828452826020956002875260409684888820541696879133151580610f26575b509060027fddf252ad1be2c89b69c2b068fc378daa952ba7f163c4a11628f55a4df523b3ef9284610ef3575b858352600381528b8320805460010190558683525289812080546001600160a01b0319168517905580a41692838303610ed25750505050565b6064945051926364283d7b60e01b8452600484015260248301526044820152fd5b600087815260046020526040902080546001600160a01b0319169055848352600381528b83208054600019019055610e99565b91939450915080610f7b575b15610f4257859291879138610e6d565b878688610f5f576024915190637e27328960e01b82526004820152fd5b604491519063177e802f60e01b82523360048301526024820152fd5b503387148015610fa0575b80610f325750858252600481523385898420541614610f32565b5086825260058152878220338352815260ff8883205416610f86565b604051633250574960e11b815260006004820152602490fd5b610fe0838383610e36565b813b610fed575b50505050565b604051630a85bd0160e11b8082523360048301526001600160a01b0392831660248301526044820194909452608060648201526020959290911693909290839061103b906084830190610cba565b039285816000958187895af18491816110e4575b506110af575050503d6000146110a7573d61106981610db4565b906110776040519283610d92565b81528091843d92013e5b805192836110a257604051633250574960e11b815260048101849052602490fd5b019050fd5b506060611081565b919450915063ffffffff60e01b16036110cc575038808080610fe7565b60249060405190633250574960e11b82526004820152fd5b9091508681813d8311611121575b6110fc8183610d92565b8101031261111d57516001600160e01b03198116810361111d57903861104f565b8480fd5b503d6110f2565b6000818152600260205260409020546001600160a01b031690811561114b575090565b60249060405190637e27328960e01b82526004820152fdfea2646970667358221220dc9b6db1ba2c6b23fc1239acba059a4ad7f341b4524d07731a63760e3557c7a264736f6c63430008140033","opcodes":"PUSH1 0x80 PUSH1 0x40 MSTORE CALLVALUE PUSH3 0x544 JUMPI PUSH3 0x173E DUP1 CODESIZE SUB DUP1 PUSH3 0x1D DUP2 PUSH3 0x57E JUMP JUMPDEST SWAP3 DUP4 CODECOPY DUP2 ADD SWAP1 PUSH1 0x40 DUP2 DUP4 SUB SLT PUSH3 0x544 JUMPI DUP1 MLOAD PUSH1 0x1 PUSH1 0x1 PUSH1 0x40 SHL SUB SWAP2 SWAP1 DUP3 DUP2 GT PUSH3 0x544 JUMPI DUP2 ADD SWAP3 PUSH1 0x1F SWAP1 DUP1 DUP3 DUP7 ADD SLT ISZERO PUSH3 0x544 JUMPI DUP5 MLOAD SWAP3 DUP5 DUP5 GT PUSH3 0x372 JUMPI PUSH1 0x20 SWAP4 PUSH1 0x1F NOT SWAP7 PUSH3 0x76 DUP7 DUP10 DUP8 DUP6 ADD AND ADD PUSH3 0x57E JUMP JUMPDEST SWAP4 DUP3 DUP6 MSTORE DUP7 DUP4 DUP4 ADD ADD GT PUSH3 0x544 JUMPI SWAP1 DUP6 SWAP3 SWAP2 PUSH1 0x0 JUMPDEST DUP3 DUP2 LT PUSH3 0x549 JUMPI POP POP PUSH1 0x0 SWAP1 DUP5 ADD DUP4 ADD MSTORE ADD MLOAD PUSH1 0x1 PUSH1 0x1 PUSH1 0xA0 SHL SUB SWAP4 SWAP1 DUP5 DUP2 AND SWAP1 DUP2 SWAP1 SUB PUSH3 0x544 JUMPI PUSH3 0xC0 PUSH3 0x55E JUMP JUMPDEST SWAP5 PUSH1 0x17 DUP7 MSTORE PUSH32 0x43616E6E61436F6E6E656374204D656D62657273686970000000000000000000 DUP4 DUP8 ADD MSTORE PUSH3 0xF4 PUSH3 0x55E JUMP JUMPDEST PUSH1 0x8 DUP2 MSTORE PUSH8 0x10D0539390539195 PUSH1 0xC2 SHL DUP5 DUP3 ADD MSTORE DUP7 MLOAD DUP9 DUP2 GT PUSH3 0x372 JUMPI PUSH1 0x0 SLOAD PUSH1 0x1 SWAP9 DUP10 DUP3 DUP2 SHR SWAP3 AND DUP1 ISZERO PUSH3 0x539 JUMPI JUMPDEST DUP8 DUP4 LT EQ PUSH3 0x351 JUMPI DUP2 DUP10 DUP5 SWAP4 GT PUSH3 0x4E3 JUMPI JUMPDEST POP DUP7 SWAP1 DUP10 DUP4 GT PUSH1 0x1 EQ PUSH3 0x47E JUMPI PUSH1 0x0 SWAP3 PUSH3 0x472 JUMPI JUMPDEST POP POP PUSH1 0x0 NOT PUSH1 0x3 DUP4 SWAP1 SHL SHR NOT AND SWAP1 DUP9 SHL OR PUSH1 0x0 SSTORE JUMPDEST DUP1 MLOAD SWAP1 DUP9 DUP3 GT PUSH3 0x372 JUMPI DUP8 SLOAD SWAP1 DUP9 DUP3 DUP2 SHR SWAP3 AND DUP1 ISZERO PUSH3 0x467 JUMPI JUMPDEST DUP7 DUP4 LT EQ PUSH3 0x351 JUMPI DUP2 DUP9 DUP5 SWAP4 GT PUSH3 0x411 JUMPI JUMPDEST POP DUP6 SWAP1 DUP9 DUP4 GT PUSH1 0x1 EQ PUSH3 0x3AD JUMPI PUSH1 0x0 SWAP3 PUSH3 0x3A1 JUMPI JUMPDEST POP POP PUSH1 0x0 NOT PUSH1 0x3 DUP4 SWAP1 SHL SHR NOT AND SWAP1 DUP8 SHL OR DUP7 SSTORE JUMPDEST DUP2 ISZERO PUSH3 0x388 JUMPI PUSH1 0x7 DUP1 SLOAD PUSH1 0x1 PUSH1 0x1 PUSH1 0xA0 SHL SUB NOT DUP2 AND DUP5 OR SWAP1 SWAP2 SSTORE DUP3 SWAP2 AND PUSH32 0x8BE0079C531659141344CD1FD0A4F28419497F9722A3DAAFE3B4186F6B6457E0 PUSH1 0x0 DUP1 LOG3 PUSH2 0x1388 PUSH1 0x9 SSTORE PUSH1 0x0 MSTORE PUSH1 0xB DUP2 MSTORE PUSH1 0x40 PUSH1 0x0 KECCAK256 DUP5 PUSH1 0xFF NOT DUP3 SLOAD AND OR SWAP1 SSTORE DUP2 MLOAD SWAP5 DUP6 GT PUSH3 0x372 JUMPI PUSH1 0xA SLOAD DUP5 DUP2 DUP2 SHR SWAP2 AND DUP1 ISZERO PUSH3 0x367 JUMPI JUMPDEST DUP3 DUP3 LT EQ PUSH3 0x351 JUMPI DUP4 DUP2 GT PUSH3 0x305 JUMPI JUMPDEST POP DUP1 SWAP3 DUP6 GT PUSH1 0x1 EQ PUSH3 0x29A JUMPI POP DUP4 SWAP5 POP SWAP1 DUP4 SWAP3 SWAP2 PUSH1 0x0 SWAP5 PUSH3 0x28E JUMPI JUMPDEST POP POP SHL SWAP2 PUSH1 0x0 NOT SWAP1 PUSH1 0x3 SHL SHR NOT AND OR PUSH1 0xA SSTORE JUMPDEST PUSH1 0x40 MLOAD PUSH2 0x1199 SWAP1 DUP2 PUSH3 0x5A5 DUP3 CODECOPY RETURN JUMPDEST ADD MLOAD SWAP3 POP CODESIZE DUP1 PUSH3 0x26B JUMP JUMPDEST SWAP3 SWAP5 DUP5 SWAP1 DUP2 AND PUSH1 0xA PUSH1 0x0 MSTORE DUP5 PUSH1 0x0 KECCAK256 SWAP5 PUSH1 0x0 SWAP1 JUMPDEST DUP9 DUP4 DUP4 LT PUSH3 0x2EA JUMPI POP POP POP LT PUSH3 0x2D0 JUMPI JUMPDEST POP POP POP DUP2 SHL ADD PUSH1 0xA SSTORE PUSH3 0x27E JUMP JUMPDEST ADD MLOAD PUSH1 0x0 NOT PUSH1 0xF8 DUP5 PUSH1 0x3 SHL AND SHR NOT AND SWAP1 SSTORE CODESIZE DUP1 DUP1 PUSH3 0x2C1 JUMP JUMPDEST DUP6 DUP8 ADD MLOAD DUP9 SSTORE SWAP1 SWAP7 ADD SWAP6 SWAP5 DUP6 ADD SWAP5 DUP8 SWAP4 POP SWAP1 DUP2 ADD SWAP1 PUSH3 0x2AE JUMP JUMPDEST PUSH1 0xA PUSH1 0x0 MSTORE DUP2 PUSH1 0x0 KECCAK256 DUP5 DUP1 DUP9 ADD PUSH1 0x5 SHR DUP3 ADD SWAP3 DUP5 DUP10 LT PUSH3 0x347 JUMPI JUMPDEST ADD PUSH1 0x5 SHR ADD SWAP1 DUP6 SWAP1 JUMPDEST DUP3 DUP2 LT PUSH3 0x33A JUMPI POP POP PUSH3 0x24D JUMP JUMPDEST PUSH1 0x0 DUP2 SSTORE ADD DUP6 SWAP1 PUSH3 0x32A JUMP JUMPDEST SWAP3 POP DUP2 SWAP3 PUSH3 0x321 JUMP JUMPDEST PUSH4 0x4E487B71 PUSH1 0xE0 SHL PUSH1 0x0 MSTORE PUSH1 0x22 PUSH1 0x4 MSTORE PUSH1 0x24 PUSH1 0x0 REVERT JUMPDEST SWAP1 PUSH1 0x7F AND SWAP1 PUSH3 0x23B JUMP JUMPDEST PUSH4 0x4E487B71 PUSH1 0xE0 SHL PUSH1 0x0 MSTORE PUSH1 0x41 PUSH1 0x4 MSTORE PUSH1 0x24 PUSH1 0x0 REVERT JUMPDEST PUSH1 0x40 MLOAD PUSH4 0x1E4FBDF7 PUSH1 0xE0 SHL DUP2 MSTORE PUSH1 0x0 PUSH1 0x4 DUP3 ADD MSTORE PUSH1 0x24 SWAP1 REVERT JUMPDEST ADD MLOAD SWAP1 POP CODESIZE DUP1 PUSH3 0x1AD JUMP JUMPDEST SWAP1 DUP12 DUP11 SWAP5 AND SWAP2 DUP5 PUSH1 0x0 MSTORE DUP8 PUSH1 0x0 KECCAK256 SWAP3 PUSH1 0x0 JUMPDEST DUP10 DUP3 DUP3 LT PUSH3 0x3FA JUMPI POP POP DUP5 GT PUSH3 0x3E0 JUMPI JUMPDEST POP POP POP DUP2 SHL ADD DUP7 SSTORE PUSH3 0x1C1 JUMP JUMPDEST ADD MLOAD PUSH1 0x0 NOT PUSH1 0xF8 DUP5 PUSH1 0x3 SHL AND SHR NOT AND SWAP1 SSTORE CODESIZE DUP1 DUP1 PUSH3 0x3D2 JUMP JUMPDEST DUP4 DUP6 ADD MLOAD DUP7 SSTORE DUP14 SWAP8 SWAP1 SWAP6 ADD SWAP5 SWAP4 DUP5 ADD SWAP4 ADD PUSH3 0x3BF JUMP JUMPDEST SWAP1 SWAP2 POP DUP9 PUSH1 0x0 MSTORE DUP6 PUSH1 0x0 KECCAK256 DUP9 DUP1 DUP6 ADD PUSH1 0x5 SHR DUP3 ADD SWAP3 DUP9 DUP7 LT PUSH3 0x45D JUMPI JUMPDEST SWAP2 DUP12 SWAP2 DUP7 SWAP6 SWAP5 SWAP4 ADD PUSH1 0x5 SHR ADD SWAP2 JUMPDEST DUP3 DUP2 LT PUSH3 0x44D JUMPI POP POP PUSH3 0x196 JUMP JUMPDEST PUSH1 0x0 DUP2 SSTORE DUP6 SWAP5 POP DUP12 SWAP2 ADD PUSH3 0x43D JUMP JUMPDEST SWAP3 POP DUP2 SWAP3 PUSH3 0x42F JUMP JUMPDEST SWAP2 PUSH1 0x7F AND SWAP2 PUSH3 0x182 JUMP JUMPDEST ADD MLOAD SWAP1 POP CODESIZE DUP1 PUSH3 0x151 JUMP JUMPDEST SWAP1 DUP13 DUP12 SWAP5 AND SWAP2 PUSH1 0x0 DUP1 MSTORE DUP9 PUSH1 0x0 KECCAK256 SWAP3 PUSH1 0x0 JUMPDEST DUP11 DUP3 DUP3 LT PUSH3 0x4CC JUMPI POP POP DUP5 GT PUSH3 0x4B2 JUMPI JUMPDEST POP POP POP DUP2 SHL ADD PUSH1 0x0 SSTORE PUSH3 0x166 JUMP JUMPDEST ADD MLOAD PUSH1 0x0 NOT PUSH1 0xF8 DUP5 PUSH1 0x3 SHL AND SHR NOT AND SWAP1 SSTORE CODESIZE DUP1 DUP1 PUSH3 0x4A3 JUMP JUMPDEST DUP4 DUP6 ADD MLOAD DUP7 SSTORE DUP15 SWAP8 SWAP1 SWAP6 ADD SWAP5 SWAP4 DUP5 ADD SWAP4 ADD PUSH3 0x490 JUMP JUMPDEST SWAP1 SWAP2 POP PUSH1 0x0 DUP1 MSTORE DUP7 PUSH1 0x0 KECCAK256 DUP10 DUP1 DUP6 ADD PUSH1 0x5 SHR DUP3 ADD SWAP3 DUP10 DUP7 LT PUSH3 0x52F JUMPI JUMPDEST SWAP2 DUP13 SWAP2 DUP7 SWAP6 SWAP5 SWAP4 ADD PUSH1 0x5 SHR ADD SWAP2 JUMPDEST DUP3 DUP2 LT PUSH3 0x51F JUMPI POP POP PUSH3 0x13A JUMP JUMPDEST PUSH1 0x0 DUP2 SSTORE DUP6 SWAP5 POP DUP13 SWAP2 ADD PUSH3 0x50F JUMP JUMPDEST SWAP3 POP DUP2 SWAP3 PUSH3 0x501 JUMP JUMPDEST SWAP2 PUSH1 0x7F AND SWAP2 PUSH3 0x126 JUMP JUMPDEST PUSH1 0x0 DUP1 REVERT JUMPDEST DUP2 DUP2 ADD DUP6 ADD MLOAD DUP7 DUP3 ADD DUP7 ADD MSTORE DUP8 SWAP5 ADD PUSH3 0x8C JUMP JUMPDEST PUSH1 0x40 DUP1 MLOAD SWAP2 SWAP1 DUP3 ADD PUSH1 0x1 PUSH1 0x1 PUSH1 0x40 SHL SUB DUP2 GT DUP4 DUP3 LT OR PUSH3 0x372 JUMPI PUSH1 0x40 MSTORE JUMP JUMPDEST PUSH1 0x40 MLOAD SWAP2 SWAP1 PUSH1 0x1F ADD PUSH1 0x1F NOT AND DUP3 ADD PUSH1 0x1 PUSH1 0x1 PUSH1 0x40 SHL SUB DUP2 GT DUP4 DUP3 LT OR PUSH3 0x372 JUMPI PUSH1 0x40 MSTORE JUMP INVALID PUSH1 0x80 PUSH1 0x40 DUP2 DUP2 MSTORE PUSH1 0x4 DUP1 CALLDATASIZE LT ISZERO PUSH2 0x15 JUMPI PUSH1 0x0 DUP1 REVERT JUMPDEST PUSH1 0x0 SWAP3 DUP4 CALLDATALOAD PUSH1 0xE0 SHR SWAP1 DUP2 PUSH4 0x1FFC9A7 EQ PUSH2 0xC34 JUMPI POP DUP1 PUSH4 0x6FDDE03 EQ PUSH2 0xB8C JUMPI DUP1 PUSH4 0x81812FC EQ PUSH2 0xB51 JUMPI DUP1 PUSH4 0x95EA7B3 EQ PUSH2 0xA75 JUMPI DUP1 PUSH4 0x23B872DD EQ PUSH2 0xA5D JUMPI DUP1 PUSH4 0x42842E0E EQ PUSH2 0xA34 JUMPI DUP1 PUSH4 0x530DD079 EQ PUSH2 0x9E7 JUMPI DUP1 PUSH4 0x54BA0F27 EQ PUSH2 0x63C JUMPI DUP1 PUSH4 0x6352211E EQ PUSH2 0x60B JUMPI DUP1 PUSH4 0x6FDADDF1 EQ PUSH2 0x5EC JUMPI DUP1 PUSH4 0x70A08231 EQ PUSH2 0x597 JUMPI DUP1 PUSH4 0x715018A6 EQ PUSH2 0x537 JUMPI DUP1 PUSH4 0x8DA5CB5B EQ PUSH2 0x50E JUMPI DUP1 PUSH4 0x95D89B41 EQ PUSH2 0x42B JUMPI DUP1 PUSH4 0xA22CB465 EQ PUSH2 0x380 JUMPI DUP1 PUSH4 0xB88D4FDE EQ PUSH2 0x2F7 JUMPI DUP1 PUSH4 0xC87B56DD EQ PUSH2 0x202 JUMPI DUP1 PUSH4 0xE2B02047 EQ PUSH2 0x1E3 JUMPI DUP1 PUSH4 0xE985E9C5 EQ PUSH2 0x191 JUMPI PUSH4 0xF2FDE38B EQ PUSH2 0xFF JUMPI PUSH1 0x0 DUP1 REVERT JUMPDEST CALLVALUE PUSH2 0x18D JUMPI PUSH1 0x20 CALLDATASIZE PUSH1 0x3 NOT ADD SLT PUSH2 0x18D JUMPI PUSH2 0x118 PUSH2 0xCFA JUMP JUMPDEST SWAP1 PUSH2 0x121 PUSH2 0xDD0 JUMP JUMPDEST PUSH1 0x1 PUSH1 0x1 PUSH1 0xA0 SHL SUB SWAP2 DUP3 AND SWAP3 DUP4 ISZERO PUSH2 0x177 JUMPI POP POP PUSH1 0x7 SLOAD DUP3 PUSH12 0xFFFFFFFFFFFFFFFFFFFFFFFF PUSH1 0xA0 SHL DUP3 AND OR PUSH1 0x7 SSTORE AND PUSH32 0x8BE0079C531659141344CD1FD0A4F28419497F9722A3DAAFE3B4186F6B6457E0 DUP4 DUP1 LOG3 DUP1 RETURN JUMPDEST MLOAD PUSH4 0x1E4FBDF7 PUSH1 0xE0 SHL DUP2 MSTORE SWAP1 DUP2 ADD DUP5 SWAP1 MSTORE PUSH1 0x24 SWAP1 REVERT JUMPDEST DUP3 DUP1 REVERT JUMPDEST POP POP CALLVALUE PUSH2 0x1DF JUMPI DUP1 PUSH1 0x3 NOT CALLDATASIZE ADD SLT PUSH2 0x1DF JUMPI PUSH1 0xFF DUP2 PUSH1 0x20 SWAP4 PUSH2 0x1B1 PUSH2 0xCFA JUMP JUMPDEST PUSH2 0x1B9 PUSH2 0xD15 JUMP JUMPDEST PUSH1 0x1 PUSH1 0x1 PUSH1 0xA0 SHL SUB SWAP2 DUP3 AND DUP4 MSTORE PUSH1 0x5 DUP8 MSTORE DUP4 DUP4 KECCAK256 SWAP2 AND DUP3 MSTORE DUP6 MSTORE KECCAK256 SLOAD SWAP2 MLOAD SWAP2 AND ISZERO ISZERO DUP2 MSTORE RETURN JUMPDEST POP DUP1 REVERT JUMPDEST POP POP CALLVALUE PUSH2 0x1DF JUMPI DUP2 PUSH1 0x3 NOT CALLDATASIZE ADD SLT PUSH2 0x1DF JUMPI PUSH1 0x20 SWAP1 PUSH1 0x8 SLOAD SWAP1 MLOAD SWAP1 DUP2 MSTORE RETURN JUMPDEST POP SWAP1 CALLVALUE PUSH2 0x18D JUMPI PUSH1 0x20 SWAP2 DUP3 PUSH1 0x3 NOT CALLDATASIZE ADD SLT PUSH2 0x2F3 JUMPI CALLDATALOAD PUSH2 0x221 DUP2 PUSH2 0x1128 JUMP JUMPDEST POP DUP4 MSTORE PUSH1 0x6 DUP3 MSTORE DUP1 DUP4 KECCAK256 SWAP3 DUP2 MLOAD DUP1 SWAP5 DUP3 SWAP1 DUP1 SLOAD PUSH2 0x23D DUP2 PUSH2 0xDFC JUMP JUMPDEST SWAP2 DUP3 DUP6 MSTORE PUSH1 0x1 SWAP2 DUP9 DUP4 DUP3 AND SWAP2 DUP3 PUSH1 0x0 EQ PUSH2 0x2CC JUMPI POP POP PUSH1 0x1 EQ PUSH2 0x28E JUMPI JUMPDEST POP POP POP PUSH2 0x28A SWAP4 SWAP3 SWAP2 PUSH2 0x26F SWAP2 SUB DUP7 PUSH2 0xD92 JUMP JUMPDEST DUP2 MLOAD PUSH2 0x27A DUP2 PUSH2 0xD60 JUMP JUMPDEST MSTORE MLOAD SWAP3 DUP3 DUP5 SWAP4 DUP5 MSTORE DUP4 ADD SWAP1 PUSH2 0xCBA JUMP JUMPDEST SUB SWAP1 RETURN JUMPDEST DUP6 MSTORE DUP7 DUP6 KECCAK256 DUP8 SWAP4 POP DUP6 SWAP3 SWAP2 SWAP1 JUMPDEST DUP3 DUP5 LT PUSH2 0x2B4 JUMPI POP POP POP DUP3 ADD ADD DUP2 PUSH2 0x26F PUSH2 0x28A PUSH2 0x25B JUMP JUMPDEST DUP1 SLOAD DUP5 DUP12 ADD DUP7 ADD MSTORE DUP10 SWAP6 POP DUP9 SWAP5 SWAP1 SWAP4 ADD SWAP3 DUP2 ADD PUSH2 0x29B JUMP JUMPDEST PUSH1 0xFF NOT AND DUP8 DUP3 ADD MSTORE SWAP4 ISZERO ISZERO PUSH1 0x5 SHL DUP7 ADD SWAP1 SWAP4 ADD SWAP4 POP DUP5 SWAP3 POP PUSH2 0x26F SWAP2 POP PUSH2 0x28A SWAP1 POP PUSH2 0x25B JUMP JUMPDEST DUP4 DUP1 REVERT JUMPDEST POP SWAP1 CALLVALUE PUSH2 0x18D JUMPI PUSH1 0x80 CALLDATASIZE PUSH1 0x3 NOT ADD SLT PUSH2 0x18D JUMPI PUSH2 0x312 PUSH2 0xCFA JUMP JUMPDEST PUSH2 0x31A PUSH2 0xD15 JUMP JUMPDEST DUP5 PUSH1 0x64 CALLDATALOAD SWAP5 PUSH8 0xFFFFFFFFFFFFFFFF DUP7 GT PUSH2 0x1DF JUMPI CALLDATASIZE PUSH1 0x23 DUP8 ADD SLT ISZERO PUSH2 0x1DF JUMPI DUP6 ADD CALLDATALOAD SWAP5 PUSH2 0x352 PUSH2 0x349 DUP8 PUSH2 0xDB4 JUMP JUMPDEST SWAP6 MLOAD SWAP6 DUP7 PUSH2 0xD92 JUMP JUMPDEST DUP6 DUP6 MSTORE CALLDATASIZE PUSH1 0x24 DUP8 DUP4 ADD ADD GT PUSH2 0x1DF JUMPI DUP6 PUSH2 0x37D SWAP7 PUSH1 0x24 PUSH1 0x20 SWAP4 ADD DUP4 DUP9 ADD CALLDATACOPY DUP6 ADD ADD MSTORE PUSH1 0x44 CALLDATALOAD SWAP2 PUSH2 0xFD5 JUMP JUMPDEST DUP1 RETURN JUMPDEST POP SWAP1 CALLVALUE PUSH2 0x18D JUMPI DUP1 PUSH1 0x3 NOT CALLDATASIZE ADD SLT PUSH2 0x18D JUMPI PUSH2 0x39A PUSH2 0xCFA JUMP JUMPDEST SWAP1 PUSH1 0x24 CALLDATALOAD DUP1 ISZERO ISZERO SWAP3 DUP4 DUP3 SUB PUSH2 0x427 JUMPI PUSH1 0x1 PUSH1 0x1 PUSH1 0xA0 SHL SUB AND SWAP4 DUP5 ISZERO PUSH2 0x410 JUMPI POP PUSH2 0x3E3 SWAP1 CALLER DUP7 MSTORE PUSH1 0x5 PUSH1 0x20 MSTORE DUP3 DUP7 KECCAK256 DUP6 DUP8 MSTORE PUSH1 0x20 MSTORE DUP3 DUP7 KECCAK256 SWAP1 PUSH1 0xFF DUP1 NOT DUP4 SLOAD AND SWAP2 ISZERO ISZERO AND OR SWAP1 SSTORE JUMP JUMPDEST MLOAD SWAP1 DUP2 MSTORE PUSH32 0x17307EAB39AB6107E8899845AD3D59BD9653F200F220920489CA2B5937696C31 PUSH1 0x20 CALLER SWAP3 LOG3 DUP1 RETURN JUMPDEST DUP3 MLOAD PUSH4 0xB611743 PUSH1 0xE3 SHL DUP2 MSTORE SWAP1 DUP2 ADD DUP6 SWAP1 MSTORE PUSH1 0x24 SWAP1 REVERT JUMPDEST DUP6 DUP1 REVERT JUMPDEST POP POP CALLVALUE PUSH2 0x1DF JUMPI DUP2 PUSH1 0x3 NOT CALLDATASIZE ADD SLT PUSH2 0x1DF JUMPI DUP1 MLOAD SWAP1 DUP3 PUSH1 0x1 DUP1 SLOAD SWAP2 PUSH2 0x44F DUP4 PUSH2 0xDFC JUMP JUMPDEST DUP1 DUP7 MSTORE SWAP3 DUP3 DUP2 AND SWAP1 DUP2 ISZERO PUSH2 0x4E6 JUMPI POP PUSH1 0x1 EQ PUSH2 0x48A JUMPI JUMPDEST POP POP POP PUSH2 0x478 DUP3 PUSH2 0x28A SWAP5 SUB DUP4 PUSH2 0xD92 JUMP JUMPDEST MLOAD SWAP2 DUP3 SWAP2 PUSH1 0x20 DUP4 MSTORE PUSH1 0x20 DUP4 ADD SWAP1 PUSH2 0xCBA JUMP JUMPDEST SWAP5 POP DUP1 DUP6 MSTORE PUSH32 0xB10E2D527612073B26EECDFD717E6A320CF44B4AFAC2B0732D9FCBE2B7FA0CF6 JUMPDEST DUP3 DUP7 LT PUSH2 0x4CE JUMPI POP POP POP PUSH2 0x478 DUP3 PUSH1 0x20 PUSH2 0x28A SWAP6 DUP3 ADD ADD SWAP5 PUSH2 0x466 JUMP JUMPDEST DUP1 SLOAD PUSH1 0x20 DUP8 DUP8 ADD DUP2 ADD SWAP2 SWAP1 SWAP2 MSTORE SWAP1 SWAP6 ADD SWAP5 DUP2 ADD PUSH2 0x4B1 JUMP JUMPDEST PUSH2 0x28A SWAP8 POP DUP7 SWAP4 POP PUSH1 0x20 SWAP3 POP PUSH2 0x478 SWAP5 SWAP2 POP PUSH1 0xFF NOT AND DUP3 DUP5 ADD MSTORE ISZERO ISZERO PUSH1 0x5 SHL DUP3 ADD ADD SWAP5 PUSH2 0x466 JUMP JUMPDEST POP POP CALLVALUE PUSH2 0x1DF JUMPI DUP2 PUSH1 0x3 NOT CALLDATASIZE ADD SLT PUSH2 0x1DF JUMPI PUSH1 0x7 SLOAD SWAP1 MLOAD PUSH1 0x1 PUSH1 0x1 PUSH1 0xA0 SHL SUB SWAP1 SWAP2 AND DUP2 MSTORE PUSH1 0x20 SWAP1 RETURN JUMPDEST DUP4 CALLVALUE PUSH2 0x594 JUMPI DUP1 PUSH1 0x3 NOT CALLDATASIZE ADD SLT PUSH2 0x594 JUMPI PUSH2 0x550 PUSH2 0xDD0 JUMP JUMPDEST PUSH1 0x7 DUP1 SLOAD PUSH1 0x1 PUSH1 0x1 PUSH1 0xA0 SHL SUB NOT DUP2 AND SWAP1 SWAP2 SSTORE DUP2 SWAP1 PUSH1 0x1 PUSH1 0x1 PUSH1 0xA0 SHL SUB AND PUSH32 0x8BE0079C531659141344CD1FD0A4F28419497F9722A3DAAFE3B4186F6B6457E0 DUP3 DUP1 LOG3 DUP1 RETURN JUMPDEST DUP1 REVERT JUMPDEST POP SWAP2 CALLVALUE PUSH2 0x594 JUMPI PUSH1 0x20 CALLDATASIZE PUSH1 0x3 NOT ADD SLT PUSH2 0x594 JUMPI PUSH1 0x1 PUSH1 0x1 PUSH1 0xA0 SHL SUB PUSH2 0x5BA PUSH2 0xCFA JUMP JUMPDEST AND SWAP3 DUP4 ISZERO PUSH2 0x5D7 JUMPI POP DUP1 PUSH1 0x20 SWAP4 DUP4 SWAP3 MSTORE PUSH1 0x3 DUP5 MSTORE KECCAK256 SLOAD SWAP1 MLOAD SWAP1 DUP2 MSTORE RETURN JUMPDEST SWAP2 MLOAD PUSH4 0x22718AD9 PUSH1 0xE2 SHL DUP2 MSTORE SWAP2 DUP3 ADD MSTORE PUSH1 0x24 SWAP1 REVERT JUMPDEST POP POP CALLVALUE PUSH2 0x1DF JUMPI DUP2 PUSH1 0x3 NOT CALLDATASIZE ADD SLT PUSH2 0x1DF JUMPI PUSH1 0x20 SWAP1 PUSH1 0x9 SLOAD SWAP1 MLOAD SWAP1 DUP2 MSTORE RETURN JUMPDEST POP SWAP2 CALLVALUE PUSH2 0x594 JUMPI PUSH1 0x20 CALLDATASIZE PUSH1 0x3 NOT ADD SLT PUSH2 0x594 JUMPI POP PUSH2 0x62B PUSH1 0x20 SWAP3 CALLDATALOAD PUSH2 0x1128 JUMP JUMPDEST SWAP1 MLOAD PUSH1 0x1 PUSH1 0x1 PUSH1 0xA0 SHL SUB SWAP1 SWAP2 AND DUP2 MSTORE RETURN JUMPDEST POP SWAP1 CALLVALUE PUSH2 0x18D JUMPI PUSH1 0x20 SWAP3 DUP4 PUSH1 0x3 NOT CALLDATASIZE ADD SLT PUSH2 0x594 JUMPI PUSH2 0x659 PUSH2 0xCFA JUMP JUMPDEST SWAP3 CALLER DUP3 MSTORE PUSH1 0xB DUP6 MSTORE PUSH1 0xFF DUP4 DUP4 KECCAK256 SLOAD AND ISZERO PUSH2 0x9AD JUMPI PUSH1 0x8 SLOAD SWAP1 PUSH1 0x9 SLOAD DUP3 LT ISZERO PUSH2 0x977 JUMPI PUSH1 0x0 NOT DUP3 DUP2 EQ PUSH2 0x964 JUMPI PUSH1 0x1 SWAP3 DUP4 ADD PUSH1 0x8 DUP2 SWAP1 SSTORE SWAP6 PUSH1 0x1 PUSH1 0x1 PUSH1 0xA0 SHL SUB SWAP1 DUP2 AND SWAP1 DUP2 ISZERO PUSH2 0x94D JUMPI DUP8 DUP7 MSTORE PUSH1 0x2 DUP10 MSTORE DUP7 DUP7 KECCAK256 SLOAD AND DUP1 ISZERO ISZERO SWAP2 DUP9 SWAP2 DUP4 PUSH2 0x91C JUMPI JUMPDEST DUP2 DUP9 MSTORE PUSH1 0x3 DUP12 MSTORE DUP9 DUP9 KECCAK256 DUP1 SLOAD DUP9 ADD SWAP1 SSTORE DUP3 DUP9 MSTORE PUSH1 0x2 DUP12 MSTORE DUP9 DUP9 KECCAK256 DUP1 SLOAD PUSH1 0x1 PUSH1 0x1 PUSH1 0xA0 SHL SUB NOT AND DUP4 OR SWAP1 SSTORE PUSH32 0xDDF252AD1BE2C89B69C2B068FC378DAA952BA7F163C4A11628F55A4DF523B3EF DUP9 DUP1 LOG4 PUSH2 0x905 JUMPI DUP5 MLOAD SWAP4 DUP8 DUP6 DUP3 PUSH1 0xA SLOAD PUSH2 0x71E DUP2 PUSH2 0xDFC JUMP JUMPDEST DUP1 DUP5 MSTORE SWAP1 DUP9 DUP2 AND SWAP1 DUP2 ISZERO PUSH2 0x8E7 JUMPI POP PUSH1 0x1 EQ PUSH2 0x88D JUMPI JUMPDEST POP PUSH2 0x742 SWAP3 POP SUB DUP7 PUSH2 0xD92 JUMP JUMPDEST DUP7 DUP2 MSTORE PUSH1 0x6 DUP9 MSTORE DUP6 DUP2 KECCAK256 SWAP5 DUP1 MLOAD SWAP4 PUSH8 0xFFFFFFFFFFFFFFFF DUP6 GT PUSH2 0x87A JUMPI POP PUSH2 0x76A DUP7 SLOAD PUSH2 0xDFC JUMP JUMPDEST PUSH1 0x1F DUP2 GT PUSH2 0x834 JUMPI JUMPDEST POP DUP9 SWAP2 PUSH1 0x1F DUP6 GT PUSH1 0x1 EQ PUSH2 0x7D4 JUMPI SWAP2 DUP5 SWAP6 SWAP2 DUP6 SWAP4 SWAP6 PUSH2 0x7C9 JUMPI JUMPDEST POP POP SHL SWAP3 PUSH1 0x3 SHL SHR NOT AND OR SWAP1 SSTORE JUMPDEST PUSH32 0xF8E1A15ABA9398E019F0B49DF1A4FDE98EE17AE345CB5F6B5E2C27F5033E8CE7 DUP4 DUP3 MLOAD DUP5 DUP2 MSTORE LOG1 MLOAD SWAP1 DUP2 MSTORE RETURN JUMPDEST ADD MLOAD SWAP4 POP CODESIZE DUP1 PUSH2 0x78D JUMP JUMPDEST SWAP3 SWAP2 SWAP1 DUP5 PUSH1 0x1F NOT DUP2 AND DUP9 DUP7 MSTORE DUP12 DUP7 KECCAK256 SWAP6 JUMPDEST DUP13 DUP10 DUP4 DUP4 LT PUSH2 0x81D JUMPI POP POP POP LT PUSH2 0x805 JUMPI JUMPDEST POP POP POP POP DUP2 SHL ADD SWAP1 SSTORE PUSH2 0x79B JUMP JUMPDEST ADD MLOAD SWAP1 PUSH1 0xF8 DUP5 PUSH1 0x3 SHL AND SHR NOT AND SWAP1 SSTORE CODESIZE DUP1 DUP1 DUP1 PUSH2 0x7F7 JUMP JUMPDEST DUP7 DUP7 ADD MLOAD DUP10 SSTORE SWAP1 SWAP8 ADD SWAP7 SWAP5 DUP6 ADD SWAP5 DUP9 SWAP4 POP ADD PUSH2 0x7E5 JUMP JUMPDEST DUP7 DUP4 MSTORE DUP10 DUP4 KECCAK256 PUSH1 0x1F DUP7 ADD PUSH1 0x5 SHR DUP2 ADD SWAP2 DUP12 DUP8 LT PUSH2 0x870 JUMPI JUMPDEST PUSH1 0x1F ADD PUSH1 0x5 SHR ADD SWAP1 DUP7 SWAP1 JUMPDEST DUP3 DUP2 LT PUSH2 0x865 JUMPI POP POP PUSH2 0x773 JUMP JUMPDEST DUP5 DUP2 SSTORE ADD DUP7 SWAP1 PUSH2 0x857 JUMP JUMPDEST SWAP1 SWAP2 POP DUP2 SWAP1 PUSH2 0x84C JUMP JUMPDEST PUSH4 0x4E487B71 PUSH1 0xE0 SHL DUP4 MSTORE PUSH1 0x41 SWAP1 MSTORE PUSH1 0x24 DUP3 REVERT JUMPDEST PUSH1 0xA DUP6 MSTORE DUP5 SWAP2 POP DUP8 PUSH32 0xC65A7BB8D6351C1CF70C95A316CC6A92839C986682D98BC35F958F4883F9D2A8 JUMPDEST DUP3 DUP5 LT PUSH2 0x8D0 JUMPI POP POP POP SWAP2 PUSH2 0x742 SWAP3 DUP3 ADD ADD DUP11 SWAP3 PUSH2 0x735 JUMP JUMPDEST DUP1 SLOAD DUP12 DUP6 ADD DUP8 ADD MSTORE DUP11 SWAP5 POP SWAP3 DUP6 ADD SWAP3 DUP10 SWAP2 ADD PUSH2 0x8B7 JUMP JUMPDEST PUSH1 0xFF NOT AND DUP5 DUP7 ADD MSTORE POP DUP12 SWAP4 SWAP1 ISZERO ISZERO PUSH1 0x5 SHL DUP4 ADD ADD SWAP1 POP PUSH2 0x742 PUSH2 0x735 JUMP JUMPDEST DUP5 MLOAD PUSH4 0x39E35637 PUSH1 0xE1 SHL DUP2 MSTORE DUP1 DUP4 ADD DUP6 SWAP1 MSTORE PUSH1 0x24 SWAP1 REVERT JUMPDEST PUSH1 0x0 DUP4 DUP2 MSTORE PUSH1 0x4 PUSH1 0x20 MSTORE PUSH1 0x40 SWAP1 KECCAK256 DUP1 SLOAD PUSH1 0x1 PUSH1 0x1 PUSH1 0xA0 SHL SUB NOT AND SWAP1 SSTORE DUP1 DUP9 MSTORE PUSH1 0x3 DUP12 MSTORE DUP9 DUP9 KECCAK256 DUP6 DUP2 SLOAD ADD SWAP1 SSTORE PUSH2 0x6BA JUMP JUMPDEST DUP7 MLOAD PUSH4 0x32505749 PUSH1 0xE1 SHL DUP2 MSTORE DUP1 DUP6 ADD DUP8 SWAP1 MSTORE PUSH1 0x24 SWAP1 REVERT JUMPDEST PUSH4 0x4E487B71 PUSH1 0xE0 SHL DUP5 MSTORE PUSH1 0x11 DUP3 MSTORE PUSH1 0x24 DUP5 REVERT JUMPDEST DUP4 MLOAD PUSH3 0x461BCD PUSH1 0xE5 SHL DUP2 MSTORE SWAP1 DUP2 ADD DUP7 SWAP1 MSTORE PUSH1 0x10 PUSH1 0x24 DUP3 ADD MSTORE PUSH16 0x4D6178696D756D20537570706C696573 PUSH1 0x80 SHL PUSH1 0x44 DUP3 ADD MSTORE PUSH1 0x64 SWAP1 REVERT JUMPDEST DUP3 MLOAD PUSH3 0x461BCD PUSH1 0xE5 SHL DUP2 MSTORE SWAP1 DUP2 ADD DUP6 SWAP1 MSTORE PUSH1 0x14 PUSH1 0x24 DUP3 ADD MSTORE PUSH20 0x13DB9B1E48135A5B9D195C8818D85B881B5A5B9D PUSH1 0x62 SHL PUSH1 0x44 DUP3 ADD MSTORE PUSH1 0x64 SWAP1 REVERT JUMPDEST POP POP CALLVALUE PUSH2 0x1DF JUMPI PUSH1 0x20 CALLDATASIZE PUSH1 0x3 NOT ADD SLT PUSH2 0x1DF JUMPI PUSH2 0x37D SWAP1 PUSH2 0xA06 PUSH2 0xCFA JUMP JUMPDEST PUSH2 0xA0E PUSH2 0xDD0 JUMP JUMPDEST PUSH1 0x1 PUSH1 0x1 PUSH1 0xA0 SHL SUB AND DUP4 MSTORE PUSH1 0xB PUSH1 0x20 MSTORE DUP3 KECCAK256 DUP1 SLOAD PUSH1 0xFF DUP2 DUP2 AND ISZERO AND PUSH1 0xFF NOT SWAP1 SWAP2 AND OR SWAP1 SSTORE JUMP JUMPDEST POP POP CALLVALUE PUSH2 0x1DF JUMPI PUSH2 0x37D SWAP1 PUSH2 0xA48 CALLDATASIZE PUSH2 0xD2B JUMP JUMPDEST SWAP2 SWAP3 MLOAD SWAP3 PUSH2 0xA55 DUP5 PUSH2 0xD60 JUMP JUMPDEST DUP6 DUP5 MSTORE PUSH2 0xFD5 JUMP JUMPDEST DUP4 CALLVALUE PUSH2 0x594 JUMPI PUSH2 0x37D PUSH2 0xA6F CALLDATASIZE PUSH2 0xD2B JUMP JUMPDEST SWAP2 PUSH2 0xE36 JUMP JUMPDEST POP SWAP1 CALLVALUE PUSH2 0x18D JUMPI DUP1 PUSH1 0x3 NOT CALLDATASIZE ADD SLT PUSH2 0x18D JUMPI PUSH2 0xA8F PUSH2 0xCFA JUMP JUMPDEST SWAP2 PUSH1 0x24 CALLDATALOAD PUSH2 0xA9C DUP2 PUSH2 0x1128 JUMP JUMPDEST CALLER ISZERO ISZERO DUP1 PUSH2 0xB3E JUMPI JUMPDEST DUP1 PUSH2 0xB15 JUMPI JUMPDEST PUSH2 0xAFF JUMPI PUSH1 0x1 PUSH1 0x1 PUSH1 0xA0 SHL SUB SWAP5 DUP6 AND SWAP5 DUP3 SWAP2 DUP7 SWAP2 AND PUSH32 0x8C5BE1E5EBEC7D5BD14F71427D1E84F3DD0314C0F7B2291E5B200AC8C7C3B925 DUP9 DUP1 LOG4 DUP5 MSTORE PUSH1 0x20 MSTORE DUP3 KECCAK256 DUP1 SLOAD PUSH1 0x1 PUSH1 0x1 PUSH1 0xA0 SHL SUB NOT AND SWAP1 SWAP2 OR SWAP1 SSTORE DUP1 RETURN JUMPDEST DUP4 MLOAD PUSH4 0xA9FBF51F PUSH1 0xE0 SHL DUP2 MSTORE CALLER DUP2 DUP6 ADD MSTORE PUSH1 0x24 SWAP1 REVERT JUMPDEST POP PUSH1 0x1 PUSH1 0x1 PUSH1 0xA0 SHL SUB DUP2 AND DUP7 MSTORE PUSH1 0x5 PUSH1 0x20 SWAP1 DUP2 MSTORE DUP5 DUP8 KECCAK256 CALLER DUP9 MSTORE SWAP1 MSTORE DUP4 DUP7 KECCAK256 SLOAD PUSH1 0xFF AND ISZERO PUSH2 0xAAB JUMP JUMPDEST POP PUSH1 0x1 PUSH1 0x1 PUSH1 0xA0 SHL SUB DUP2 AND CALLER EQ ISZERO PUSH2 0xAA5 JUMP JUMPDEST POP CALLVALUE PUSH2 0x18D JUMPI PUSH1 0x20 CALLDATASIZE PUSH1 0x3 NOT ADD SLT PUSH2 0x18D JUMPI SWAP2 DUP3 PUSH1 0x20 SWAP4 CALLDATALOAD PUSH2 0xB72 DUP2 PUSH2 0x1128 JUMP JUMPDEST POP DUP3 MSTORE DUP4 MSTORE DUP2 SWAP1 KECCAK256 SLOAD SWAP1 MLOAD PUSH1 0x1 PUSH1 0x1 PUSH1 0xA0 SHL SUB SWAP1 SWAP2 AND DUP2 MSTORE RETURN JUMPDEST POP POP CALLVALUE PUSH2 0x1DF JUMPI DUP2 PUSH1 0x3 NOT CALLDATASIZE ADD SLT PUSH2 0x1DF JUMPI DUP1 MLOAD SWAP1 DUP3 DUP1 SLOAD PUSH2 0xBAD DUP2 PUSH2 0xDFC JUMP JUMPDEST DUP1 DUP6 MSTORE SWAP2 PUSH1 0x1 SWAP2 DUP1 DUP4 AND SWAP1 DUP2 ISZERO PUSH2 0x4E6 JUMPI POP PUSH1 0x1 EQ PUSH2 0xBD8 JUMPI POP POP POP PUSH2 0x478 DUP3 PUSH2 0x28A SWAP5 SUB DUP4 PUSH2 0xD92 JUMP JUMPDEST DUP1 DUP1 SWAP7 POP MSTORE PUSH32 0x290DECD9548B62A8D60345A988386FC84BA6BC95484008F6362F93160EF3E563 JUMPDEST DUP3 DUP7 LT PUSH2 0xC1C JUMPI POP POP POP PUSH2 0x478 DUP3 PUSH1 0x20 PUSH2 0x28A SWAP6 DUP3 ADD ADD SWAP5 PUSH2 0x466 JUMP JUMPDEST DUP1 SLOAD PUSH1 0x20 DUP8 DUP8 ADD DUP2 ADD SWAP2 SWAP1 SWAP2 MSTORE SWAP1 SWAP6 ADD SWAP5 DUP2 ADD PUSH2 0xBFF JUMP JUMPDEST SWAP3 POP POP CALLVALUE PUSH2 0x18D JUMPI PUSH1 0x20 CALLDATASIZE PUSH1 0x3 NOT ADD SLT PUSH2 0x18D JUMPI CALLDATALOAD PUSH4 0xFFFFFFFF PUSH1 0xE0 SHL DUP2 AND DUP1 SWAP2 SUB PUSH2 0x18D JUMPI PUSH1 0x20 SWAP3 POP PUSH4 0x24832483 PUSH1 0xE1 SHL DUP2 EQ SWAP1 DUP2 ISZERO PUSH2 0xC77 JUMPI JUMPDEST POP ISZERO ISZERO DUP2 MSTORE RETURN JUMPDEST PUSH4 0x80AC58CD PUSH1 0xE0 SHL DUP2 EQ SWAP2 POP DUP2 ISZERO PUSH2 0xCA9 JUMPI JUMPDEST DUP2 ISZERO PUSH2 0xC98 JUMPI JUMPDEST POP CODESIZE PUSH2 0xC70 JUMP JUMPDEST PUSH4 0x1FFC9A7 PUSH1 0xE0 SHL EQ SWAP1 POP CODESIZE PUSH2 0xC91 JUMP JUMPDEST PUSH4 0x5B5E139F PUSH1 0xE0 SHL DUP2 EQ SWAP2 POP PUSH2 0xC8A JUMP JUMPDEST SWAP2 SWAP1 DUP3 MLOAD SWAP3 DUP4 DUP3 MSTORE PUSH1 0x0 JUMPDEST DUP5 DUP2 LT PUSH2 0xCE6 JUMPI POP POP DUP3 PUSH1 0x0 PUSH1 0x20 DUP1 SWAP5 SWAP6 DUP5 ADD ADD MSTORE PUSH1 0x1F DUP1 NOT SWAP2 ADD AND ADD ADD SWAP1 JUMP JUMPDEST PUSH1 0x20 DUP2 DUP4 ADD DUP2 ADD MLOAD DUP5 DUP4 ADD DUP3 ADD MSTORE ADD PUSH2 0xCC5 JUMP JUMPDEST PUSH1 0x4 CALLDATALOAD SWAP1 PUSH1 0x1 PUSH1 0x1 PUSH1 0xA0 SHL SUB DUP3 AND DUP3 SUB PUSH2 0xD10 JUMPI JUMP JUMPDEST PUSH1 0x0 DUP1 REVERT JUMPDEST PUSH1 0x24 CALLDATALOAD SWAP1 PUSH1 0x1 PUSH1 0x1 PUSH1 0xA0 SHL SUB DUP3 AND DUP3 SUB PUSH2 0xD10 JUMPI JUMP JUMPDEST PUSH1 0x60 SWAP1 PUSH1 0x3 NOT ADD SLT PUSH2 0xD10 JUMPI PUSH1 0x1 PUSH1 0x1 PUSH1 0xA0 SHL SUB SWAP1 PUSH1 0x4 CALLDATALOAD DUP3 DUP2 AND DUP2 SUB PUSH2 0xD10 JUMPI SWAP2 PUSH1 0x24 CALLDATALOAD SWAP1 DUP2 AND DUP2 SUB PUSH2 0xD10 JUMPI SWAP1 PUSH1 0x44 CALLDATALOAD SWAP1 JUMP JUMPDEST PUSH1 0x20 DUP2 ADD SWAP1 DUP2 LT PUSH8 0xFFFFFFFFFFFFFFFF DUP3 GT OR PUSH2 0xD7C JUMPI PUSH1 0x40 MSTORE JUMP JUMPDEST PUSH4 0x4E487B71 PUSH1 0xE0 SHL PUSH1 0x0 MSTORE PUSH1 0x41 PUSH1 0x4 MSTORE PUSH1 0x24 PUSH1 0x0 REVERT JUMPDEST SWAP1 PUSH1 0x1F DUP1 NOT SWAP2 ADD AND DUP2 ADD SWAP1 DUP2 LT PUSH8 0xFFFFFFFFFFFFFFFF DUP3 GT OR PUSH2 0xD7C JUMPI PUSH1 0x40 MSTORE JUMP JUMPDEST PUSH8 0xFFFFFFFFFFFFFFFF DUP2 GT PUSH2 0xD7C JUMPI PUSH1 0x1F ADD PUSH1 0x1F NOT AND PUSH1 0x20 ADD SWAP1 JUMP JUMPDEST PUSH1 0x7 SLOAD PUSH1 0x1 PUSH1 0x1 PUSH1 0xA0 SHL SUB AND CALLER SUB PUSH2 0xDE4 JUMPI JUMP JUMPDEST PUSH1 0x40 MLOAD PUSH4 0x118CDAA7 PUSH1 0xE0 SHL DUP2 MSTORE CALLER PUSH1 0x4 DUP3 ADD MSTORE PUSH1 0x24 SWAP1 REVERT JUMPDEST SWAP1 PUSH1 0x1 DUP3 DUP2 SHR SWAP3 AND DUP1 ISZERO PUSH2 0xE2C JUMPI JUMPDEST PUSH1 0x20 DUP4 LT EQ PUSH2 0xE16 JUMPI JUMP JUMPDEST PUSH4 0x4E487B71 PUSH1 0xE0 SHL PUSH1 0x0 MSTORE PUSH1 0x22 PUSH1 0x4 MSTORE PUSH1 0x24 PUSH1 0x0 REVERT JUMPDEST SWAP2 PUSH1 0x7F AND SWAP2 PUSH2 0xE0B JUMP JUMPDEST PUSH1 0x1 PUSH1 0x1 PUSH1 0xA0 SHL SUB SWAP2 DUP3 AND SWAP3 SWAP1 SWAP2 DUP4 ISZERO PUSH2 0xFBC JUMPI PUSH1 0x0 SWAP3 DUP3 DUP5 MSTORE DUP3 PUSH1 0x20 SWAP6 PUSH1 0x2 DUP8 MSTORE PUSH1 0x40 SWAP7 DUP5 DUP9 DUP9 KECCAK256 SLOAD AND SWAP7 DUP8 SWAP2 CALLER ISZERO ISZERO DUP1 PUSH2 0xF26 JUMPI JUMPDEST POP SWAP1 PUSH1 0x2 PUSH32 0xDDF252AD1BE2C89B69C2B068FC378DAA952BA7F163C4A11628F55A4DF523B3EF SWAP3 DUP5 PUSH2 0xEF3 JUMPI JUMPDEST DUP6 DUP4 MSTORE PUSH1 0x3 DUP2 MSTORE DUP12 DUP4 KECCAK256 DUP1 SLOAD PUSH1 0x1 ADD SWAP1 SSTORE DUP7 DUP4 MSTORE MSTORE DUP10 DUP2 KECCAK256 DUP1 SLOAD PUSH1 0x1 PUSH1 0x1 PUSH1 0xA0 SHL SUB NOT AND DUP6 OR SWAP1 SSTORE DUP1 LOG4 AND SWAP3 DUP4 DUP4 SUB PUSH2 0xED2 JUMPI POP POP POP POP JUMP JUMPDEST PUSH1 0x64 SWAP5 POP MLOAD SWAP3 PUSH4 0x64283D7B PUSH1 0xE0 SHL DUP5 MSTORE PUSH1 0x4 DUP5 ADD MSTORE PUSH1 0x24 DUP4 ADD MSTORE PUSH1 0x44 DUP3 ADD MSTORE REVERT JUMPDEST PUSH1 0x0 DUP8 DUP2 MSTORE PUSH1 0x4 PUSH1 0x20 MSTORE PUSH1 0x40 SWAP1 KECCAK256 DUP1 SLOAD PUSH1 0x1 PUSH1 0x1 PUSH1 0xA0 SHL SUB NOT AND SWAP1 SSTORE DUP5 DUP4 MSTORE PUSH1 0x3 DUP2 MSTORE DUP12 DUP4 KECCAK256 DUP1 SLOAD PUSH1 0x0 NOT ADD SWAP1 SSTORE PUSH2 0xE99 JUMP JUMPDEST SWAP2 SWAP4 SWAP5 POP SWAP2 POP DUP1 PUSH2 0xF7B JUMPI JUMPDEST ISZERO PUSH2 0xF42 JUMPI DUP6 SWAP3 SWAP2 DUP8 SWAP2 CODESIZE PUSH2 0xE6D JUMP JUMPDEST DUP8 DUP7 DUP9 PUSH2 0xF5F JUMPI PUSH1 0x24 SWAP2 MLOAD SWAP1 PUSH4 0x7E273289 PUSH1 0xE0 SHL DUP3 MSTORE PUSH1 0x4 DUP3 ADD MSTORE REVERT JUMPDEST PUSH1 0x44 SWAP2 MLOAD SWAP1 PUSH4 0x177E802F PUSH1 0xE0 SHL DUP3 MSTORE CALLER PUSH1 0x4 DUP4 ADD MSTORE PUSH1 0x24 DUP3 ADD MSTORE REVERT JUMPDEST POP CALLER DUP8 EQ DUP1 ISZERO PUSH2 0xFA0 JUMPI JUMPDEST DUP1 PUSH2 0xF32 JUMPI POP DUP6 DUP3 MSTORE PUSH1 0x4 DUP2 MSTORE CALLER DUP6 DUP10 DUP5 KECCAK256 SLOAD AND EQ PUSH2 0xF32 JUMP JUMPDEST POP DUP7 DUP3 MSTORE PUSH1 0x5 DUP2 MSTORE DUP8 DUP3 KECCAK256 CALLER DUP4 MSTORE DUP2 MSTORE PUSH1 0xFF DUP9 DUP4 KECCAK256 SLOAD AND PUSH2 0xF86 JUMP JUMPDEST PUSH1 0x40 MLOAD PUSH4 0x32505749 PUSH1 0xE1 SHL DUP2 MSTORE PUSH1 0x0 PUSH1 0x4 DUP3 ADD MSTORE PUSH1 0x24 SWAP1 REVERT JUMPDEST PUSH2 0xFE0 DUP4 DUP4 DUP4 PUSH2 0xE36 JUMP JUMPDEST DUP2 EXTCODESIZE PUSH2 0xFED JUMPI JUMPDEST POP POP POP POP JUMP JUMPDEST PUSH1 0x40 MLOAD PUSH4 0xA85BD01 PUSH1 0xE1 SHL DUP1 DUP3 MSTORE CALLER PUSH1 0x4 DUP4 ADD MSTORE PUSH1 0x1 PUSH1 0x1 PUSH1 0xA0 SHL SUB SWAP3 DUP4 AND PUSH1 0x24 DUP4 ADD MSTORE PUSH1 0x44 DUP3 ADD SWAP5 SWAP1 SWAP5 MSTORE PUSH1 0x80 PUSH1 0x64 DUP3 ADD MSTORE PUSH1 0x20 SWAP6 SWAP3 SWAP1 SWAP2 AND SWAP4 SWAP1 SWAP3 SWAP1 DUP4 SWAP1 PUSH2 0x103B SWAP1 PUSH1 0x84 DUP4 ADD SWAP1 PUSH2 0xCBA JUMP JUMPDEST SUB SWAP3 DUP6 DUP2 PUSH1 0x0 SWAP6 DUP2 DUP8 DUP10 GAS CALL DUP5 SWAP2 DUP2 PUSH2 0x10E4 JUMPI JUMPDEST POP PUSH2 0x10AF JUMPI POP POP POP RETURNDATASIZE PUSH1 0x0 EQ PUSH2 0x10A7 JUMPI RETURNDATASIZE PUSH2 0x1069 DUP2 PUSH2 0xDB4 JUMP JUMPDEST SWAP1 PUSH2 0x1077 PUSH1 0x40 MLOAD SWAP3 DUP4 PUSH2 0xD92 JUMP JUMPDEST DUP2 MSTORE DUP1 SWAP2 DUP5 RETURNDATASIZE SWAP3 ADD RETURNDATACOPY JUMPDEST DUP1 MLOAD SWAP3 DUP4 PUSH2 0x10A2 JUMPI PUSH1 0x40 MLOAD PUSH4 0x32505749 PUSH1 0xE1 SHL DUP2 MSTORE PUSH1 0x4 DUP2 ADD DUP5 SWAP1 MSTORE PUSH1 0x24 SWAP1 REVERT JUMPDEST ADD SWAP1 POP REVERT JUMPDEST POP PUSH1 0x60 PUSH2 0x1081 JUMP JUMPDEST SWAP2 SWAP5 POP SWAP2 POP PUSH4 0xFFFFFFFF PUSH1 0xE0 SHL AND SUB PUSH2 0x10CC JUMPI POP CODESIZE DUP1 DUP1 DUP1 PUSH2 0xFE7 JUMP JUMPDEST PUSH1 0x24 SWAP1 PUSH1 0x40 MLOAD SWAP1 PUSH4 0x32505749 PUSH1 0xE1 SHL DUP3 MSTORE PUSH1 0x4 DUP3 ADD MSTORE REVERT JUMPDEST SWAP1 SWAP2 POP DUP7 DUP2 DUP2 RETURNDATASIZE DUP4 GT PUSH2 0x1121 JUMPI JUMPDEST PUSH2 0x10FC DUP2 DUP4 PUSH2 0xD92 JUMP JUMPDEST DUP2 ADD SUB SLT PUSH2 0x111D JUMPI MLOAD PUSH1 0x1 PUSH1 0x1 PUSH1 0xE0 SHL SUB NOT DUP2 AND DUP2 SUB PUSH2 0x111D JUMPI SWAP1 CODESIZE PUSH2 0x104F JUMP JUMPDEST DUP5 DUP1 REVERT JUMPDEST POP RETURNDATASIZE PUSH2 0x10F2 JUMP JUMPDEST PUSH1 0x0 DUP2 DUP2 MSTORE PUSH1 0x2 PUSH1 0x20 MSTORE PUSH1 0x40 SWAP1 KECCAK256 SLOAD PUSH1 0x1 PUSH1 0x1 PUSH1 0xA0 SHL SUB AND SWAP1 DUP2 ISZERO PUSH2 0x114B JUMPI POP SWAP1 JUMP JUMPDEST PUSH1 0x24 SWAP1 PUSH1 0x40 MLOAD SWAP1 PUSH4 0x7E273289 PUSH1 0xE0 SHL DUP3 MSTORE PUSH1 0x4 DUP3 ADD MSTORE REVERT INVALID LOG2 PUSH5 0x6970667358 0x22 SLT KECCAK256 0xDC SWAP12 PUSH14 0xB1BA2C6B23FC1239ACBA059A4AD7 RETURN COINBASE 0xB4 MSTORE 0x4D SMOD PUSH20 0x1A63760E3557C7A264736F6C6343000814003300 "},"methodIdentifiers":{"MAX_NFT()":"6fdaddf1","approve(address,uint256)":"095ea7b3","balanceOf(address)":"70a08231","getApproved(uint256)":"081812fc","getTotalIds()":"e2b02047","isApprovedForAll(address,address)":"e985e9c5","mintNFT(address)":"54ba0f27","name()":"06fdde03","owner()":"8da5cb5b","ownerOf(uint256)":"6352211e","renounceOwnership()":"715018a6","safeTransferFrom(address,address,uint256)":"42842e0e","safeTransferFrom(address,address,uint256,bytes)":"b88d4fde","setApprovalForAll(address,bool)":"a22cb465","setMintRole(address)":"530dd079","supportsInterface(bytes4)":"01ffc9a7","symbol()":"95d89b41","tokenURI(uint256)":"c87b56dd","transferFrom(address,address,uint256)":"23b872dd","transferOwnership(address)":"f2fde38b"}}}}}