{"contracts/SaleNFT.sol":{"PresaleNFT":{"abi":[{"inputs":[{"internalType":"address","name":"_token","type":"address"},{"internalType":"address","name":"_owner","type":"address"}],"stateMutability":"nonpayable","type":"constructor"},{"inputs":[{"internalType":"address","name":"owner","type":"address"}],"name":"OwnableInvalidOwner","type":"error"},{"inputs":[{"internalType":"address","name":"account","type":"address"}],"name":"OwnableUnauthorizedAccount","type":"error"},{"anonymous":false,"inputs":[{"indexed":true,"internalType":"address","name":"user","type":"address"},{"indexed":false,"internalType":"uint256","name":"tokenId","type":"uint256"}],"name":"BuyToken","type":"event"},{"anonymous":false,"inputs":[{"indexed":true,"internalType":"address","name":"previousOwner","type":"address"},{"indexed":true,"internalType":"address","name":"newOwner","type":"address"}],"name":"OwnershipTransferred","type":"event"},{"inputs":[],"name":"buy","outputs":[],"stateMutability":"payable","type":"function"},{"inputs":[],"name":"owner","outputs":[{"internalType":"address","name":"","type":"address"}],"stateMutability":"view","type":"function"},{"inputs":[],"name":"price","outputs":[{"internalType":"uint256","name":"","type":"uint256"}],"stateMutability":"view","type":"function"},{"inputs":[],"name":"renounceOwnership","outputs":[],"stateMutability":"nonpayable","type":"function"},{"inputs":[{"internalType":"uint256","name":"_price","type":"uint256"}],"name":"setPrice","outputs":[],"stateMutability":"nonpayable","type":"function"},{"inputs":[],"name":"token","outputs":[{"internalType":"contract CANNANFT","name":"","type":"address"}],"stateMutability":"view","type":"function"},{"inputs":[{"internalType":"address","name":"newOwner","type":"address"}],"name":"transferOwnership","outputs":[],"stateMutability":"nonpayable","type":"function"},{"inputs":[],"name":"withdrawFund","outputs":[],"stateMutability":"nonpayable","type":"function"}],"evm":{"bytecode":{"linkReferences":{},"object":"6080346100d557601f6104ce38819003918201601f19168301916001600160401b038311848410176100da5780849260409485528339810103126100d5576020610048826100f0565b916001600160a01b0391829161005e91016100f0565b169081156100bc576000549260018060a01b03199280848616176000558260405195167f8be0079c531659141344cd1fd0a4f28419497f9722a3daafe3b4186f6b6457e0600080a3169060015416176001556103c990816101058239f35b604051631e4fbdf760e01b815260006004820152602490fd5b600080fd5b634e487b7160e01b600052604160045260246000fd5b51906001600160a01b03821682036100d55756fe6040608081526004908136101561001557600080fd5b600091823560e01c908163715018a61461030a5781638da5cb5b146102e257816391b7f5ed146102c0578163a035b1fe146102a1578163a6f2ae3a1461017f578163e07fa3c114610139578163f2fde38b146100a6575063fc0c546a1461007b57600080fd5b346100a257816003193601126100a25760015490516001600160a01b039091168152602090f35b5080fd5b91905034610135576020366003190112610135576001600160a01b03823581811693919290849003610131576100da610367565b831561011b57505082546001600160a01b0319811683178455167f8be0079c531659141344cd1fd0a4f28419497f9722a3daafe3b4186f6b6457e08380a380f35b51631e4fbdf760e01b8152908101849052602490fd5b8480fd5b8280fd5b5050346100a257816003193601126100a257610153610367565b8180808047818115610176575b3390f11561016c575080f35b51903d90823e3d90fd5b506108fc610160565b9190508260031936011261013557600254340361026a5760015481516354ba0f2760e01b81523384820152906020908290602490829088906001600160a01b03165af19283156102605784936101ff575b5050519081527fdd06b66c3ba8126086cd863137d6f3b86ce5bcf4309cac390cc265e39194d0b260203392a280f35b909192506020903d8211610258575b601f8201601f191683019067ffffffffffffffff8211848310176102455750602091839185528101031261013557519038806101d0565b634e487b7160e01b865260419052602485fd5b3d915061020e565b82513d86823e3d90fd5b906020606492519162461bcd60e51b835282015260116024820152705072696365206e6f742065786163746c7960781b6044820152fd5b5050346100a257816003193601126100a2576020906002549051908152f35b8390346100a25760203660031901126100a2576102db610367565b3560025580f35b5050346100a257816003193601126100a257905490516001600160a01b039091168152602090f35b8334610364578060031936011261036457610323610367565b80546001600160a01b03198116825581906001600160a01b03167f8be0079c531659141344cd1fd0a4f28419497f9722a3daafe3b4186f6b6457e08280a380f35b80fd5b6000546001600160a01b0316330361037b57565b60405163118cdaa760e01b8152336004820152602490fdfea26469706673582212206af8f44b3c6f4ca9e30da9e0203cbaec72dcbd73b67a0c2cfb0de651d8c7407e64736f6c63430008140033","opcodes":"PUSH1 0x80 CALLVALUE PUSH2 0xD5 JUMPI PUSH1 0x1F PUSH2 0x4CE CODESIZE DUP2 SWAP1 SUB SWAP2 DUP3 ADD PUSH1 0x1F NOT AND DUP4 ADD SWAP2 PUSH1 0x1 PUSH1 0x1 PUSH1 0x40 SHL SUB DUP4 GT DUP5 DUP5 LT OR PUSH2 0xDA JUMPI DUP1 DUP5 SWAP3 PUSH1 0x40 SWAP5 DUP6 MSTORE DUP4 CODECOPY DUP2 ADD SUB SLT PUSH2 0xD5 JUMPI PUSH1 0x20 PUSH2 0x48 DUP3 PUSH2 0xF0 JUMP JUMPDEST SWAP2 PUSH1 0x1 PUSH1 0x1 PUSH1 0xA0 SHL SUB SWAP2 DUP3 SWAP2 PUSH2 0x5E SWAP2 ADD PUSH2 0xF0 JUMP JUMPDEST AND SWAP1 DUP2 ISZERO PUSH2 0xBC JUMPI PUSH1 0x0 SLOAD SWAP3 PUSH1 0x1 DUP1 PUSH1 0xA0 SHL SUB NOT SWAP3 DUP1 DUP5 DUP7 AND OR PUSH1 0x0 SSTORE DUP3 PUSH1 0x40 MLOAD SWAP6 AND PUSH32 0x8BE0079C531659141344CD1FD0A4F28419497F9722A3DAAFE3B4186F6B6457E0 PUSH1 0x0 DUP1 LOG3 AND SWAP1 PUSH1 0x1 SLOAD AND OR PUSH1 0x1 SSTORE PUSH2 0x3C9 SWAP1 DUP2 PUSH2 0x105 DUP3 CODECOPY RETURN JUMPDEST PUSH1 0x40 MLOAD PUSH4 0x1E4FBDF7 PUSH1 0xE0 SHL DUP2 MSTORE PUSH1 0x0 PUSH1 0x4 DUP3 ADD MSTORE PUSH1 0x24 SWAP1 REVERT JUMPDEST PUSH1 0x0 DUP1 REVERT JUMPDEST PUSH4 0x4E487B71 PUSH1 0xE0 SHL PUSH1 0x0 MSTORE PUSH1 0x41 PUSH1 0x4 MSTORE PUSH1 0x24 PUSH1 0x0 REVERT JUMPDEST MLOAD SWAP1 PUSH1 0x1 PUSH1 0x1 PUSH1 0xA0 SHL SUB DUP3 AND DUP3 SUB PUSH2 0xD5 JUMPI JUMP INVALID PUSH1 0x40 PUSH1 0x80 DUP2 MSTORE PUSH1 0x4 SWAP1 DUP2 CALLDATASIZE LT ISZERO PUSH2 0x15 JUMPI PUSH1 0x0 DUP1 REVERT JUMPDEST PUSH1 0x0 SWAP2 DUP3 CALLDATALOAD PUSH1 0xE0 SHR SWAP1 DUP2 PUSH4 0x715018A6 EQ PUSH2 0x30A JUMPI DUP2 PUSH4 0x8DA5CB5B EQ PUSH2 0x2E2 JUMPI DUP2 PUSH4 0x91B7F5ED EQ PUSH2 0x2C0 JUMPI DUP2 PUSH4 0xA035B1FE EQ PUSH2 0x2A1 JUMPI DUP2 PUSH4 0xA6F2AE3A EQ PUSH2 0x17F JUMPI DUP2 PUSH4 0xE07FA3C1 EQ PUSH2 0x139 JUMPI DUP2 PUSH4 0xF2FDE38B EQ PUSH2 0xA6 JUMPI POP PUSH4 0xFC0C546A EQ PUSH2 0x7B JUMPI PUSH1 0x0 DUP1 REVERT JUMPDEST CALLVALUE PUSH2 0xA2 JUMPI DUP2 PUSH1 0x3 NOT CALLDATASIZE ADD SLT PUSH2 0xA2 JUMPI PUSH1 0x1 SLOAD SWAP1 MLOAD PUSH1 0x1 PUSH1 0x1 PUSH1 0xA0 SHL SUB SWAP1 SWAP2 AND DUP2 MSTORE PUSH1 0x20 SWAP1 RETURN JUMPDEST POP DUP1 REVERT JUMPDEST SWAP2 SWAP1 POP CALLVALUE PUSH2 0x135 JUMPI PUSH1 0x20 CALLDATASIZE PUSH1 0x3 NOT ADD SLT PUSH2 0x135 JUMPI PUSH1 0x1 PUSH1 0x1 PUSH1 0xA0 SHL SUB DUP3 CALLDATALOAD DUP2 DUP2 AND SWAP4 SWAP2 SWAP3 SWAP1 DUP5 SWAP1 SUB PUSH2 0x131 JUMPI PUSH2 0xDA PUSH2 0x367 JUMP JUMPDEST DUP4 ISZERO PUSH2 0x11B JUMPI POP POP DUP3 SLOAD PUSH1 0x1 PUSH1 0x1 PUSH1 0xA0 SHL SUB NOT DUP2 AND DUP4 OR DUP5 SSTORE AND PUSH32 0x8BE0079C531659141344CD1FD0A4F28419497F9722A3DAAFE3B4186F6B6457E0 DUP4 DUP1 LOG3 DUP1 RETURN JUMPDEST MLOAD PUSH4 0x1E4FBDF7 PUSH1 0xE0 SHL DUP2 MSTORE SWAP1 DUP2 ADD DUP5 SWAP1 MSTORE PUSH1 0x24 SWAP1 REVERT JUMPDEST DUP5 DUP1 REVERT JUMPDEST DUP3 DUP1 REVERT JUMPDEST POP POP CALLVALUE PUSH2 0xA2 JUMPI DUP2 PUSH1 0x3 NOT CALLDATASIZE ADD SLT PUSH2 0xA2 JUMPI PUSH2 0x153 PUSH2 0x367 JUMP JUMPDEST DUP2 DUP1 DUP1 DUP1 SELFBALANCE DUP2 DUP2 ISZERO PUSH2 0x176 JUMPI JUMPDEST CALLER SWAP1 CALL ISZERO PUSH2 0x16C JUMPI POP DUP1 RETURN JUMPDEST MLOAD SWAP1 RETURNDATASIZE SWAP1 DUP3 RETURNDATACOPY RETURNDATASIZE SWAP1 REVERT JUMPDEST POP PUSH2 0x8FC PUSH2 0x160 JUMP JUMPDEST SWAP2 SWAP1 POP DUP3 PUSH1 0x3 NOT CALLDATASIZE ADD SLT PUSH2 0x135 JUMPI PUSH1 0x2 SLOAD CALLVALUE SUB PUSH2 0x26A JUMPI PUSH1 0x1 SLOAD DUP2 MLOAD PUSH4 0x54BA0F27 PUSH1 0xE0 SHL DUP2 MSTORE CALLER DUP5 DUP3 ADD MSTORE SWAP1 PUSH1 0x20 SWAP1 DUP3 SWAP1 PUSH1 0x24 SWAP1 DUP3 SWAP1 DUP9 SWAP1 PUSH1 0x1 PUSH1 0x1 PUSH1 0xA0 SHL SUB AND GAS CALL SWAP3 DUP4 ISZERO PUSH2 0x260 JUMPI DUP5 SWAP4 PUSH2 0x1FF JUMPI JUMPDEST POP POP MLOAD SWAP1 DUP2 MSTORE PUSH32 0xDD06B66C3BA8126086CD863137D6F3B86CE5BCF4309CAC390CC265E39194D0B2 PUSH1 0x20 CALLER SWAP3 LOG2 DUP1 RETURN JUMPDEST SWAP1 SWAP2 SWAP3 POP PUSH1 0x20 SWAP1 RETURNDATASIZE DUP3 GT PUSH2 0x258 JUMPI JUMPDEST PUSH1 0x1F DUP3 ADD PUSH1 0x1F NOT AND DUP4 ADD SWAP1 PUSH8 0xFFFFFFFFFFFFFFFF DUP3 GT DUP5 DUP4 LT OR PUSH2 0x245 JUMPI POP PUSH1 0x20 SWAP2 DUP4 SWAP2 DUP6 MSTORE DUP2 ADD SUB SLT PUSH2 0x135 JUMPI MLOAD SWAP1 CODESIZE DUP1 PUSH2 0x1D0 JUMP JUMPDEST PUSH4 0x4E487B71 PUSH1 0xE0 SHL DUP7 MSTORE PUSH1 0x41 SWAP1 MSTORE PUSH1 0x24 DUP6 REVERT JUMPDEST RETURNDATASIZE SWAP2 POP PUSH2 0x20E JUMP JUMPDEST DUP3 MLOAD RETURNDATASIZE DUP7 DUP3 RETURNDATACOPY RETURNDATASIZE SWAP1 REVERT JUMPDEST SWAP1 PUSH1 0x20 PUSH1 0x64 SWAP3 MLOAD SWAP2 PUSH3 0x461BCD PUSH1 0xE5 SHL DUP4 MSTORE DUP3 ADD MSTORE PUSH1 0x11 PUSH1 0x24 DUP3 ADD MSTORE PUSH17 0x5072696365206E6F742065786163746C79 PUSH1 0x78 SHL PUSH1 0x44 DUP3 ADD MSTORE REVERT JUMPDEST POP POP CALLVALUE PUSH2 0xA2 JUMPI DUP2 PUSH1 0x3 NOT CALLDATASIZE ADD SLT PUSH2 0xA2 JUMPI PUSH1 0x20 SWAP1 PUSH1 0x2 SLOAD SWAP1 MLOAD SWAP1 DUP2 MSTORE RETURN JUMPDEST DUP4 SWAP1 CALLVALUE PUSH2 0xA2 JUMPI PUSH1 0x20 CALLDATASIZE PUSH1 0x3 NOT ADD SLT PUSH2 0xA2 JUMPI PUSH2 0x2DB PUSH2 0x367 JUMP JUMPDEST CALLDATALOAD PUSH1 0x2 SSTORE DUP1 RETURN JUMPDEST POP POP CALLVALUE PUSH2 0xA2 JUMPI DUP2 PUSH1 0x3 NOT CALLDATASIZE ADD SLT PUSH2 0xA2 JUMPI SWAP1 SLOAD SWAP1 MLOAD PUSH1 0x1 PUSH1 0x1 PUSH1 0xA0 SHL SUB SWAP1 SWAP2 AND DUP2 MSTORE PUSH1 0x20 SWAP1 RETURN JUMPDEST DUP4 CALLVALUE PUSH2 0x364 JUMPI DUP1 PUSH1 0x3 NOT CALLDATASIZE ADD SLT PUSH2 0x364 JUMPI PUSH2 0x323 PUSH2 0x367 JUMP JUMPDEST DUP1 SLOAD PUSH1 0x1 PUSH1 0x1 PUSH1 0xA0 SHL SUB NOT DUP2 AND DUP3 SSTORE DUP2 SWAP1 PUSH1 0x1 PUSH1 0x1 PUSH1 0xA0 SHL SUB AND PUSH32 0x8BE0079C531659141344CD1FD0A4F28419497F9722A3DAAFE3B4186F6B6457E0 DUP3 DUP1 LOG3 DUP1 RETURN JUMPDEST DUP1 REVERT JUMPDEST PUSH1 0x0 SLOAD PUSH1 0x1 PUSH1 0x1 PUSH1 0xA0 SHL SUB AND CALLER SUB PUSH2 0x37B JUMPI JUMP JUMPDEST PUSH1 0x40 MLOAD PUSH4 0x118CDAA7 PUSH1 0xE0 SHL DUP2 MSTORE CALLER PUSH1 0x4 DUP3 ADD MSTORE PUSH1 0x24 SWAP1 REVERT INVALID LOG2 PUSH5 0x6970667358 0x22 SLT KECCAK256 PUSH11 0xF8F44B3C6F4CA9E30DA9E0 KECCAK256 EXTCODECOPY 0xBA 0xEC PUSH19 0xDCBD73B67A0C2CFB0DE651D8C7407E64736F6C PUSH4 0x43000814 STOP CALLER "},"methodIdentifiers":{"buy()":"a6f2ae3a","owner()":"8da5cb5b","price()":"a035b1fe","renounceOwnership()":"715018a6","setPrice(uint256)":"91b7f5ed","token()":"fc0c546a","transferOwnership(address)":"f2fde38b","withdrawFund()":"e07fa3c1"}}}}}