{"contracts/Presale.sol":{"PresaleToken":{"abi":[{"inputs":[{"internalType":"address","name":"_token","type":"address"},{"internalType":"address","name":"_owner","type":"address"},{"internalType":"uint256","name":"initTotalSale","type":"uint256"},{"internalType":"uint256","name":"initPrice","type":"uint256"}],"stateMutability":"nonpayable","type":"constructor"},{"inputs":[{"internalType":"address","name":"target","type":"address"}],"name":"AddressEmptyCode","type":"error"},{"inputs":[{"internalType":"address","name":"account","type":"address"}],"name":"AddressInsufficientBalance","type":"error"},{"inputs":[],"name":"FailedInnerCall","type":"error"},{"inputs":[{"internalType":"address","name":"owner","type":"address"}],"name":"OwnableInvalidOwner","type":"error"},{"inputs":[{"internalType":"address","name":"account","type":"address"}],"name":"OwnableUnauthorizedAccount","type":"error"},{"inputs":[{"internalType":"address","name":"token","type":"address"}],"name":"SafeERC20FailedOperation","type":"error"},{"anonymous":false,"inputs":[{"indexed":true,"internalType":"address","name":"user","type":"address"},{"indexed":false,"internalType":"uint256","name":"amount","type":"uint256"}],"name":"BuyToken","type":"event"},{"anonymous":false,"inputs":[{"indexed":true,"internalType":"address","name":"previousOwner","type":"address"},{"indexed":true,"internalType":"address","name":"newOwner","type":"address"}],"name":"OwnershipTransferred","type":"event"},{"inputs":[],"name":"buy","outputs":[],"stateMutability":"payable","type":"function"},{"inputs":[],"name":"getRemainingToken","outputs":[{"internalType":"uint256","name":"","type":"uint256"}],"stateMutability":"view","type":"function"},{"inputs":[{"internalType":"uint256","name":"value","type":"uint256"}],"name":"getTokenCanBuy","outputs":[{"internalType":"uint256","name":"","type":"uint256"}],"stateMutability":"view","type":"function"},{"inputs":[],"name":"owner","outputs":[{"internalType":"address","name":"","type":"address"}],"stateMutability":"view","type":"function"},{"inputs":[],"name":"price","outputs":[{"internalType":"uint256","name":"","type":"uint256"}],"stateMutability":"view","type":"function"},{"inputs":[],"name":"renounceOwnership","outputs":[],"stateMutability":"nonpayable","type":"function"},{"inputs":[{"internalType":"uint256","name":"_price","type":"uint256"}],"name":"setPrice","outputs":[],"stateMutability":"nonpayable","type":"function"},{"inputs":[{"internalType":"uint256","name":"_total","type":"uint256"}],"name":"setTotalPresale","outputs":[],"stateMutability":"nonpayable","type":"function"},{"inputs":[],"name":"token","outputs":[{"internalType":"contract IERC20","name":"","type":"address"}],"stateMutability":"view","type":"function"},{"inputs":[],"name":"tokenSale","outputs":[{"internalType":"uint256","name":"","type":"uint256"}],"stateMutability":"view","type":"function"},{"inputs":[],"name":"totalPresale","outputs":[{"internalType":"uint256","name":"","type":"uint256"}],"stateMutability":"view","type":"function"},{"inputs":[{"internalType":"address","name":"newOwner","type":"address"}],"name":"transferOwnership","outputs":[],"stateMutability":"nonpayable","type":"function"},{"inputs":[],"name":"withdrawFund","outputs":[],"stateMutability":"nonpayable","type":"function"}],"evm":{"bytecode":{"linkReferences":{},"object":"6080346100e857601f61072f38819003918201601f19168301916001600160401b038311848410176100ed578084926080946040528339810103126100e85761004781610103565b9061005460208201610103565b604082015160609092015191906001600160a01b039081169081156100cf576000549460018060a01b03199280848816176000558260405197167f8be0079c531659141344cd1fd0a4f28419497f9722a3daafe3b4186f6b6457e0600080a31690600154161760015560035560025561061790816101188239f35b604051631e4fbdf760e01b815260006004820152602490fd5b600080fd5b634e487b7160e01b600052604160045260246000fd5b51906001600160a01b03821682036100e85756fe608060408181526004918236101561001657600080fd5b600092833560e01c9182633efe6441146104b6575081636bd3d40614610497578163715018a61461043d5781638da5cb5b1461041557816391b7f5ed146103f35781639f4e4dd7146103d1578163a035b1fe146103b2578163a6f2ae3a14610200578163b702fccc146101d6578163b9420310146101b8578163e07fa3c114610172578163f2fde38b146100df575063fc0c546a146100b457600080fd5b346100db57816003193601126100db5760015490516001600160a01b039091168152602090f35b5080fd5b9190503461016e57602036600319011261016e576001600160a01b0382358181169391929084900361016a576101136104f1565b831561015457505082546001600160a01b0319811683178455167f8be0079c531659141344cd1fd0a4f28419497f9722a3daafe3b4186f6b6457e08380a380f35b51631e4fbdf760e01b8152908101849052602490fd5b8480fd5b8280fd5b5050346100db57816003193601126100db5761018c6104f1565b81808080478181156101af575b3390f1156101a5575080f35b51903d90823e3d90fd5b506108fc610199565b90503461016e578260031936011261016e5760209250549051908152f35b8284346101fd5760203660031901126101fd57506101f6602092356105a3565b9051908152f35b80fd5b9190508260031936011261016e57610217346105a3565b9161022383825461051d565b6003541061038057600154825163a9059cbb60e01b60208201908152336024830152604480830187905282526001600160a01b039092169167ffffffffffffffff91608081018181108482111761034d57865251879182919082865af13d15610373573d82811161036057855192601f8201601f19908116603f011684019081118482101761034d57865282526102c391903d88602084013e5b83610540565b8051908115159182610325575b505061031157506102e283825461051d565b9055519081527fdd06b66c3ba8126086cd863137d6f3b86ce5bcf4309cac390cc265e39194d0b260203392a280f35b6024925191635274afe760e01b8352820152fd5b819250906020918101031261034957602001518015908115036103495738806102d0565b8580fd5b634e487b7160e01b895260418652602489fd5b634e487b7160e01b885260418552602488fd5b6102c391506060906102bd565b6020606492519162461bcd60e51b8352820152600d60248201526c141bdbdb08199a5b9a5cda1959609a1b6044820152fd5b5050346100db57816003193601126100db576020906002549051908152f35b8390346100db5760203660031901126100db576103ec6104f1565b3560035580f35b8390346100db5760203660031901126100db5761040e6104f1565b3560025580f35b5050346100db57816003193601126100db57905490516001600160a01b039091168152602090f35b83346101fd57806003193601126101fd576104566104f1565b80546001600160a01b03198116825581906001600160a01b03167f8be0079c531659141344cd1fd0a4f28419497f9722a3daafe3b4186f6b6457e08280a380f35b5050346100db57816003193601126100db576020906003549051908152f35b84346101fd57806003193601126101fd5760035490835482039182116104de57602083838152f35b634e487b7160e01b815260118452602490fd5b6000546001600160a01b0316330361050557565b60405163118cdaa760e01b8152336004820152602490fd5b9190820180921161052a57565b634e487b7160e01b600052601160045260246000fd5b90610567575080511561055557805190602001fd5b604051630a12f52160e11b8152600490fd5b8151158061059a575b610578575090565b604051639996b31560e01b81526001600160a01b039091166004820152602490fd5b50803b15610570565b670de0b6b3a76400009081810291818304149015171561052a576002549081156105cb570490565b634e487b7160e01b600052601260045260246000fdfea2646970667358221220513db91b946ff2ce638d6b7c0f2a608d29ca8f3ceac1d2fad1f5bf2aad861d1764736f6c63430008140033","opcodes":"PUSH1 0x80 CALLVALUE PUSH2 0xE8 JUMPI PUSH1 0x1F PUSH2 0x72F CODESIZE DUP2 SWAP1 SUB SWAP2 DUP3 ADD PUSH1 0x1F NOT AND DUP4 ADD SWAP2 PUSH1 0x1 PUSH1 0x1 PUSH1 0x40 SHL SUB DUP4 GT DUP5 DUP5 LT OR PUSH2 0xED JUMPI DUP1 DUP5 SWAP3 PUSH1 0x80 SWAP5 PUSH1 0x40 MSTORE DUP4 CODECOPY DUP2 ADD SUB SLT PUSH2 0xE8 JUMPI PUSH2 0x47 DUP2 PUSH2 0x103 JUMP JUMPDEST SWAP1 PUSH2 0x54 PUSH1 0x20 DUP3 ADD PUSH2 0x103 JUMP JUMPDEST PUSH1 0x40 DUP3 ADD MLOAD PUSH1 0x60 SWAP1 SWAP3 ADD MLOAD SWAP2 SWAP1 PUSH1 0x1 PUSH1 0x1 PUSH1 0xA0 SHL SUB SWAP1 DUP2 AND SWAP1 DUP2 ISZERO PUSH2 0xCF JUMPI PUSH1 0x0 SLOAD SWAP5 PUSH1 0x1 DUP1 PUSH1 0xA0 SHL SUB NOT SWAP3 DUP1 DUP5 DUP9 AND OR PUSH1 0x0 SSTORE DUP3 PUSH1 0x40 MLOAD SWAP8 AND PUSH32 0x8BE0079C531659141344CD1FD0A4F28419497F9722A3DAAFE3B4186F6B6457E0 PUSH1 0x0 DUP1 LOG3 AND SWAP1 PUSH1 0x1 SLOAD AND OR PUSH1 0x1 SSTORE PUSH1 0x3 SSTORE PUSH1 0x2 SSTORE PUSH2 0x617 SWAP1 DUP2 PUSH2 0x118 DUP3 CODECOPY RETURN JUMPDEST PUSH1 0x40 MLOAD PUSH4 0x1E4FBDF7 PUSH1 0xE0 SHL DUP2 MSTORE PUSH1 0x0 PUSH1 0x4 DUP3 ADD MSTORE PUSH1 0x24 SWAP1 REVERT JUMPDEST PUSH1 0x0 DUP1 REVERT JUMPDEST PUSH4 0x4E487B71 PUSH1 0xE0 SHL PUSH1 0x0 MSTORE PUSH1 0x41 PUSH1 0x4 MSTORE PUSH1 0x24 PUSH1 0x0 REVERT JUMPDEST MLOAD SWAP1 PUSH1 0x1 PUSH1 0x1 PUSH1 0xA0 SHL SUB DUP3 AND DUP3 SUB PUSH2 0xE8 JUMPI JUMP INVALID PUSH1 0x80 PUSH1 0x40 DUP2 DUP2 MSTORE PUSH1 0x4 SWAP2 DUP3 CALLDATASIZE LT ISZERO PUSH2 0x16 JUMPI PUSH1 0x0 DUP1 REVERT JUMPDEST PUSH1 0x0 SWAP3 DUP4 CALLDATALOAD PUSH1 0xE0 SHR SWAP2 DUP3 PUSH4 0x3EFE6441 EQ PUSH2 0x4B6 JUMPI POP DUP2 PUSH4 0x6BD3D406 EQ PUSH2 0x497 JUMPI DUP2 PUSH4 0x715018A6 EQ PUSH2 0x43D JUMPI DUP2 PUSH4 0x8DA5CB5B EQ PUSH2 0x415 JUMPI DUP2 PUSH4 0x91B7F5ED EQ PUSH2 0x3F3 JUMPI DUP2 PUSH4 0x9F4E4DD7 EQ PUSH2 0x3D1 JUMPI DUP2 PUSH4 0xA035B1FE EQ PUSH2 0x3B2 JUMPI DUP2 PUSH4 0xA6F2AE3A EQ PUSH2 0x200 JUMPI DUP2 PUSH4 0xB702FCCC EQ PUSH2 0x1D6 JUMPI DUP2 PUSH4 0xB9420310 EQ PUSH2 0x1B8 JUMPI DUP2 PUSH4 0xE07FA3C1 EQ PUSH2 0x172 JUMPI DUP2 PUSH4 0xF2FDE38B EQ PUSH2 0xDF JUMPI POP PUSH4 0xFC0C546A EQ PUSH2 0xB4 JUMPI PUSH1 0x0 DUP1 REVERT JUMPDEST CALLVALUE PUSH2 0xDB JUMPI DUP2 PUSH1 0x3 NOT CALLDATASIZE ADD SLT PUSH2 0xDB JUMPI PUSH1 0x1 SLOAD SWAP1 MLOAD PUSH1 0x1 PUSH1 0x1 PUSH1 0xA0 SHL SUB SWAP1 SWAP2 AND DUP2 MSTORE PUSH1 0x20 SWAP1 RETURN JUMPDEST POP DUP1 REVERT JUMPDEST SWAP2 SWAP1 POP CALLVALUE PUSH2 0x16E JUMPI PUSH1 0x20 CALLDATASIZE PUSH1 0x3 NOT ADD SLT PUSH2 0x16E JUMPI PUSH1 0x1 PUSH1 0x1 PUSH1 0xA0 SHL SUB DUP3 CALLDATALOAD DUP2 DUP2 AND SWAP4 SWAP2 SWAP3 SWAP1 DUP5 SWAP1 SUB PUSH2 0x16A JUMPI PUSH2 0x113 PUSH2 0x4F1 JUMP JUMPDEST DUP4 ISZERO PUSH2 0x154 JUMPI POP POP DUP3 SLOAD PUSH1 0x1 PUSH1 0x1 PUSH1 0xA0 SHL SUB NOT DUP2 AND DUP4 OR DUP5 SSTORE AND PUSH32 0x8BE0079C531659141344CD1FD0A4F28419497F9722A3DAAFE3B4186F6B6457E0 DUP4 DUP1 LOG3 DUP1 RETURN JUMPDEST MLOAD PUSH4 0x1E4FBDF7 PUSH1 0xE0 SHL DUP2 MSTORE SWAP1 DUP2 ADD DUP5 SWAP1 MSTORE PUSH1 0x24 SWAP1 REVERT JUMPDEST DUP5 DUP1 REVERT JUMPDEST DUP3 DUP1 REVERT JUMPDEST POP POP CALLVALUE PUSH2 0xDB JUMPI DUP2 PUSH1 0x3 NOT CALLDATASIZE ADD SLT PUSH2 0xDB JUMPI PUSH2 0x18C PUSH2 0x4F1 JUMP JUMPDEST DUP2 DUP1 DUP1 DUP1 SELFBALANCE DUP2 DUP2 ISZERO PUSH2 0x1AF JUMPI JUMPDEST CALLER SWAP1 CALL ISZERO PUSH2 0x1A5 JUMPI POP DUP1 RETURN JUMPDEST MLOAD SWAP1 RETURNDATASIZE SWAP1 DUP3 RETURNDATACOPY RETURNDATASIZE SWAP1 REVERT JUMPDEST POP PUSH2 0x8FC PUSH2 0x199 JUMP JUMPDEST SWAP1 POP CALLVALUE PUSH2 0x16E JUMPI DUP3 PUSH1 0x3 NOT CALLDATASIZE ADD SLT PUSH2 0x16E JUMPI PUSH1 0x20 SWAP3 POP SLOAD SWAP1 MLOAD SWAP1 DUP2 MSTORE RETURN JUMPDEST DUP3 DUP5 CALLVALUE PUSH2 0x1FD JUMPI PUSH1 0x20 CALLDATASIZE PUSH1 0x3 NOT ADD SLT PUSH2 0x1FD JUMPI POP PUSH2 0x1F6 PUSH1 0x20 SWAP3 CALLDATALOAD PUSH2 0x5A3 JUMP JUMPDEST SWAP1 MLOAD SWAP1 DUP2 MSTORE RETURN JUMPDEST DUP1 REVERT JUMPDEST SWAP2 SWAP1 POP DUP3 PUSH1 0x3 NOT CALLDATASIZE ADD SLT PUSH2 0x16E JUMPI PUSH2 0x217 CALLVALUE PUSH2 0x5A3 JUMP JUMPDEST SWAP2 PUSH2 0x223 DUP4 DUP3 SLOAD PUSH2 0x51D JUMP JUMPDEST PUSH1 0x3 SLOAD LT PUSH2 0x380 JUMPI PUSH1 0x1 SLOAD DUP3 MLOAD PUSH4 0xA9059CBB PUSH1 0xE0 SHL PUSH1 0x20 DUP3 ADD SWAP1 DUP2 MSTORE CALLER PUSH1 0x24 DUP4 ADD MSTORE PUSH1 0x44 DUP1 DUP4 ADD DUP8 SWAP1 MSTORE DUP3 MSTORE PUSH1 0x1 PUSH1 0x1 PUSH1 0xA0 SHL SUB SWAP1 SWAP3 AND SWAP2 PUSH8 0xFFFFFFFFFFFFFFFF SWAP2 PUSH1 0x80 DUP2 ADD DUP2 DUP2 LT DUP5 DUP3 GT OR PUSH2 0x34D JUMPI DUP7 MSTORE MLOAD DUP8 SWAP2 DUP3 SWAP2 SWAP1 DUP3 DUP7 GAS CALL RETURNDATASIZE ISZERO PUSH2 0x373 JUMPI RETURNDATASIZE DUP3 DUP2 GT PUSH2 0x360 JUMPI DUP6 MLOAD SWAP3 PUSH1 0x1F DUP3 ADD PUSH1 0x1F NOT SWAP1 DUP2 AND PUSH1 0x3F ADD AND DUP5 ADD SWAP1 DUP2 GT DUP5 DUP3 LT OR PUSH2 0x34D JUMPI DUP7 MSTORE DUP3 MSTORE PUSH2 0x2C3 SWAP2 SWAP1 RETURNDATASIZE DUP9 PUSH1 0x20 DUP5 ADD RETURNDATACOPY JUMPDEST DUP4 PUSH2 0x540 JUMP JUMPDEST DUP1 MLOAD SWAP1 DUP2 ISZERO ISZERO SWAP2 DUP3 PUSH2 0x325 JUMPI JUMPDEST POP POP PUSH2 0x311 JUMPI POP PUSH2 0x2E2 DUP4 DUP3 SLOAD PUSH2 0x51D JUMP JUMPDEST SWAP1 SSTORE MLOAD SWAP1 DUP2 MSTORE PUSH32 0xDD06B66C3BA8126086CD863137D6F3B86CE5BCF4309CAC390CC265E39194D0B2 PUSH1 0x20 CALLER SWAP3 LOG2 DUP1 RETURN JUMPDEST PUSH1 0x24 SWAP3 MLOAD SWAP2 PUSH4 0x5274AFE7 PUSH1 0xE0 SHL DUP4 MSTORE DUP3 ADD MSTORE REVERT JUMPDEST DUP2 SWAP3 POP SWAP1 PUSH1 0x20 SWAP2 DUP2 ADD SUB SLT PUSH2 0x349 JUMPI PUSH1 0x20 ADD MLOAD DUP1 ISZERO SWAP1 DUP2 ISZERO SUB PUSH2 0x349 JUMPI CODESIZE DUP1 PUSH2 0x2D0 JUMP JUMPDEST DUP6 DUP1 REVERT JUMPDEST PUSH4 0x4E487B71 PUSH1 0xE0 SHL DUP10 MSTORE PUSH1 0x41 DUP7 MSTORE PUSH1 0x24 DUP10 REVERT JUMPDEST PUSH4 0x4E487B71 PUSH1 0xE0 SHL DUP9 MSTORE PUSH1 0x41 DUP6 MSTORE PUSH1 0x24 DUP9 REVERT JUMPDEST PUSH2 0x2C3 SWAP2 POP PUSH1 0x60 SWAP1 PUSH2 0x2BD JUMP JUMPDEST PUSH1 0x20 PUSH1 0x64 SWAP3 MLOAD SWAP2 PUSH3 0x461BCD PUSH1 0xE5 SHL DUP4 MSTORE DUP3 ADD MSTORE PUSH1 0xD PUSH1 0x24 DUP3 ADD MSTORE PUSH13 0x141BDBDB08199A5B9A5CDA1959 PUSH1 0x9A SHL PUSH1 0x44 DUP3 ADD MSTORE REVERT JUMPDEST POP POP CALLVALUE PUSH2 0xDB JUMPI DUP2 PUSH1 0x3 NOT CALLDATASIZE ADD SLT PUSH2 0xDB JUMPI PUSH1 0x20 SWAP1 PUSH1 0x2 SLOAD SWAP1 MLOAD SWAP1 DUP2 MSTORE RETURN JUMPDEST DUP4 SWAP1 CALLVALUE PUSH2 0xDB JUMPI PUSH1 0x20 CALLDATASIZE PUSH1 0x3 NOT ADD SLT PUSH2 0xDB JUMPI PUSH2 0x3EC PUSH2 0x4F1 JUMP JUMPDEST CALLDATALOAD PUSH1 0x3 SSTORE DUP1 RETURN JUMPDEST DUP4 SWAP1 CALLVALUE PUSH2 0xDB JUMPI PUSH1 0x20 CALLDATASIZE PUSH1 0x3 NOT ADD SLT PUSH2 0xDB JUMPI PUSH2 0x40E PUSH2 0x4F1 JUMP JUMPDEST CALLDATALOAD PUSH1 0x2 SSTORE DUP1 RETURN JUMPDEST POP POP CALLVALUE PUSH2 0xDB JUMPI DUP2 PUSH1 0x3 NOT CALLDATASIZE ADD SLT PUSH2 0xDB JUMPI SWAP1 SLOAD SWAP1 MLOAD PUSH1 0x1 PUSH1 0x1 PUSH1 0xA0 SHL SUB SWAP1 SWAP2 AND DUP2 MSTORE PUSH1 0x20 SWAP1 RETURN JUMPDEST DUP4 CALLVALUE PUSH2 0x1FD JUMPI DUP1 PUSH1 0x3 NOT CALLDATASIZE ADD SLT PUSH2 0x1FD JUMPI PUSH2 0x456 PUSH2 0x4F1 JUMP JUMPDEST DUP1 SLOAD PUSH1 0x1 PUSH1 0x1 PUSH1 0xA0 SHL SUB NOT DUP2 AND DUP3 SSTORE DUP2 SWAP1 PUSH1 0x1 PUSH1 0x1 PUSH1 0xA0 SHL SUB AND PUSH32 0x8BE0079C531659141344CD1FD0A4F28419497F9722A3DAAFE3B4186F6B6457E0 DUP3 DUP1 LOG3 DUP1 RETURN JUMPDEST POP POP CALLVALUE PUSH2 0xDB JUMPI DUP2 PUSH1 0x3 NOT CALLDATASIZE ADD SLT PUSH2 0xDB JUMPI PUSH1 0x20 SWAP1 PUSH1 0x3 SLOAD SWAP1 MLOAD SWAP1 DUP2 MSTORE RETURN JUMPDEST DUP5 CALLVALUE PUSH2 0x1FD JUMPI DUP1 PUSH1 0x3 NOT CALLDATASIZE ADD SLT PUSH2 0x1FD JUMPI PUSH1 0x3 SLOAD SWAP1 DUP4 SLOAD DUP3 SUB SWAP2 DUP3 GT PUSH2 0x4DE JUMPI PUSH1 0x20 DUP4 DUP4 DUP2 MSTORE RETURN JUMPDEST PUSH4 0x4E487B71 PUSH1 0xE0 SHL DUP2 MSTORE PUSH1 0x11 DUP5 MSTORE PUSH1 0x24 SWAP1 REVERT JUMPDEST PUSH1 0x0 SLOAD PUSH1 0x1 PUSH1 0x1 PUSH1 0xA0 SHL SUB AND CALLER SUB PUSH2 0x505 JUMPI JUMP JUMPDEST PUSH1 0x40 MLOAD PUSH4 0x118CDAA7 PUSH1 0xE0 SHL DUP2 MSTORE CALLER PUSH1 0x4 DUP3 ADD MSTORE PUSH1 0x24 SWAP1 REVERT JUMPDEST SWAP2 SWAP1 DUP3 ADD DUP1 SWAP3 GT PUSH2 0x52A JUMPI JUMP JUMPDEST PUSH4 0x4E487B71 PUSH1 0xE0 SHL PUSH1 0x0 MSTORE PUSH1 0x11 PUSH1 0x4 MSTORE PUSH1 0x24 PUSH1 0x0 REVERT JUMPDEST SWAP1 PUSH2 0x567 JUMPI POP DUP1 MLOAD ISZERO PUSH2 0x555 JUMPI DUP1 MLOAD SWAP1 PUSH1 0x20 ADD REVERT JUMPDEST PUSH1 0x40 MLOAD PUSH4 0xA12F521 PUSH1 0xE1 SHL DUP2 MSTORE PUSH1 0x4 SWAP1 REVERT JUMPDEST DUP2 MLOAD ISZERO DUP1 PUSH2 0x59A JUMPI JUMPDEST PUSH2 0x578 JUMPI POP SWAP1 JUMP JUMPDEST PUSH1 0x40 MLOAD PUSH4 0x9996B315 PUSH1 0xE0 SHL DUP2 MSTORE PUSH1 0x1 PUSH1 0x1 PUSH1 0xA0 SHL SUB SWAP1 SWAP2 AND PUSH1 0x4 DUP3 ADD MSTORE PUSH1 0x24 SWAP1 REVERT JUMPDEST POP DUP1 EXTCODESIZE ISZERO PUSH2 0x570 JUMP JUMPDEST PUSH8 0xDE0B6B3A7640000 SWAP1 DUP2 DUP2 MUL SWAP2 DUP2 DUP4 DIV EQ SWAP1 ISZERO OR ISZERO PUSH2 0x52A JUMPI PUSH1 0x2 SLOAD SWAP1 DUP2 ISZERO PUSH2 0x5CB JUMPI DIV SWAP1 JUMP JUMPDEST PUSH4 0x4E487B71 PUSH1 0xE0 SHL PUSH1 0x0 MSTORE PUSH1 0x12 PUSH1 0x4 MSTORE PUSH1 0x24 PUSH1 0x0 REVERT INVALID LOG2 PUSH5 0x6970667358 0x22 SLT KECCAK256 MLOAD RETURNDATASIZE 0xB9 SHL SWAP5 PUSH16 0xF2CE638D6B7C0F2A608D29CA8F3CEAC1 0xD2 STATICCALL 0xD1 CREATE2 0xBF 0x2A 0xAD DUP7 SAR OR PUSH5 0x736F6C6343 STOP ADDMOD EQ STOP CALLER "},"methodIdentifiers":{"buy()":"a6f2ae3a","getRemainingToken()":"3efe6441","getTokenCanBuy(uint256)":"b702fccc","owner()":"8da5cb5b","price()":"a035b1fe","renounceOwnership()":"715018a6","setPrice(uint256)":"91b7f5ed","setTotalPresale(uint256)":"9f4e4dd7","token()":"fc0c546a","tokenSale()":"b9420310","totalPresale()":"6bd3d406","transferOwnership(address)":"f2fde38b","withdrawFund()":"e07fa3c1"}}}}}